{\rtf1\ansi\ansicpg1252\uc1 \deff28\deflang1033\deflangfe1033\deftab360{\fonttbl{\f0\froman\fcharset0\fprq2{\*\panose 02020603050405020304}Times New Roman;}{\f2\fmodern\fcharset0\fprq1{\*\panose 02070309020205020404}Courier New;}{\f3\froman\fcharset2\fprq2{\*\panose 05050102010706020507}Symbol;}{\f4\froman\fcharset0\fprq2{\*\panose 00000000000000000000}Times;}{\f14\fnil\fcharset2\fprq2{\*\panose 05000000000000000000}Wingdings;}{\f28\fswiss\fcharset128\fprq2{\*\panose 020b0604020202020204}Arial Unicode MS;}{\f29\fswiss\fcharset128\fprq2{\*\panose 00000000000000000000}@Arial Unicode MS;}{\f128\froman\fcharset238\fprq2 Times New Roman CE;}{\f129\froman\fcharset204\fprq2 Times New Roman Cyr;}{\f131\froman\fcharset161\fprq2 Times New Roman Greek;}{\f132\froman\fcharset162\fprq2 Times New Roman Tur;}{\f133\froman\fcharset177\fprq2 Times New Roman (Hebrew);}{\f134\froman\fcharset178\fprq2 Times New Roman (Arabic);}{\f135\froman\fcharset186\fprq2 Times New Roman Baltic;}{\f144\fmodern\fcharset238\fprq1 Courier New CE;}{\f145\fmodern\fcharset204\fprq1 Courier New Cyr;}{\f147\fmodern\fcharset161\fprq1 Courier New Greek;}{\f148\fmodern\fcharset162\fprq1 Courier New Tur;}{\f149\fmodern\fcharset177\fprq1 Courier New (Hebrew);}{\f150\fmodern\fcharset178\fprq1 Courier New (Arabic);}{\f151\fmodern\fcharset186\fprq1 Courier New Baltic;}{\f354\fswiss\fcharset0\fprq2 Arial Unicode MS Western;}{\f352\fswiss\fcharset238\fprq2 Arial Unicode MS CE;}{\f353\fswiss\fcharset204\fprq2 Arial Unicode MS Cyr;}{\f355\fswiss\fcharset161\fprq2 Arial Unicode MS Greek;}{\f356\fswiss\fcharset162\fprq2 Arial Unicode MS Tur;}{\f357\fswiss\fcharset177\fprq2 Arial Unicode MS (Hebrew);}{\f358\fswiss\fcharset178\fprq2 Arial Unicode MS (Arabic);}{\f359\fswiss\fcharset186\fprq2 Arial Unicode MS Baltic;}}{\colortbl;\red0\green0\blue0;\red0\green0\blue255;\red0\green255\blue255;\red0\green255\blue0;\red255\green0\blue255;\red255\green0\blue0;\red255\green255\blue0;\red255\green255\blue255;\red0\green0\blue128;\red0\green128\blue128;\red0\green128\blue0;\red128\green0\blue128;\red128\green0\blue0;\red128\green128\blue0;\red128\green128\blue128;\red192\green192\blue192;\red221\green221\blue221;\red153\green153\blue153;\red222\green222\blue233;\red102\green51\blue204;\red150\green150\blue150;\red254\green248\blue217;}{\info{\title Factiva RTF Display Format}{\author Factiva, from Dow Jones.}{\operator Factiva, from Dow Jones.}{\creatim\yr2005\mo2\dy5\hr12\min00}{\revtim\yr2005\mo2\dy5\hr12\min00}{\version2}{\edmins4}{\nofpages1}{\nofwords16}{\nofchars93}{\*\company Factiva, from Dow Jones.}{\nofcharsws114}{\vern8279}} \paperh15840\paperw12240\widowctrl\ftnbj\aenddoc\noxlattoyen\expshrtn\noultrlspc\dntblnsbdb\nospaceforul\hyphcaps0\formshade\horzdoc\dgmargin\dghspace180\dgvspace180\dghorigin1800\dgvorigin1440\dghshow1\dgvshow1\jexpand\viewkind1\viewscale100\pgbrdrhead\pgbrdrfoot\splytwnine\ftnlytwnine\htmautsp\nolnhtadjtbl\useltbaln\alntblind\lytcalctblwd\lyttblrtgr\lnbrkrule \fet0\sectd \titlepg \linex0\endnhere\pgbrdropt32\sectlinegrid360\sectdefaultcl\margr1440\margl1440 {\headerf\pard\plain \s21\qc \li-1008\ri-1008\widctlpar\tqc\tx4320\tqr\tx8640\aspalpha\aspnum\faauto\adjustright\rin-1008\lin-1008\itap0 \fs20\lang1033\langfe1033\loch\af28\hich\af28\dbch\af28\cgrid\langnp1033\langfenp1033 {\f0\fs16\qr\ri0{\*\shppict{\pict\jpegblip\picw117\pich70\picscaley100\picscalex100\picwgoal1755\pichgoal1050
FF
D8FFE1001845786966000049492A00080000000000000000000000FFEC00114475636B79000100040000003C0000FFE1031F687474703A2F2F6E732E61646F62
652E636F6D2F7861702F312E302F003C3F787061636B657420626567696E3D22EFBBBF222069643D2257354D304D7043656869487A7265537A4E54637A6B6339
64223F3E203C783A786D706D65746120786D6C6E733A783D2261646F62653A6E733A6D6574612F2220783A786D70746B3D2241646F626520584D5020436F7265
20352E362D633036372037392E3135373734372C20323031352F30332F33302D32333A34303A34322020202020202020223E203C7264663A52444620786D6C6E
733A7264663D22687474703A2F2F7777772E77332E6F72672F313939392F30322F32322D7264662D73796E7461782D6E7323223E203C7264663A446573637269
7074696F6E207264663A61626F75743D222220786D6C6E733A786D704D4D3D22687474703A2F2F6E732E61646F62652E636F6D2F7861702F312E302F6D6D2F22
20786D6C6E733A73745265663D22687474703A2F2F6E732E61646F62652E636F6D2F7861702F312E302F73547970652F5265736F75726365526566232220786D
6C6E733A786D703D22687474703A2F2F6E732E61646F62652E636F6D2F7861702F312E302F2220786D704D4D3A446F63756D656E7449443D22786D702E646964
3A41323833444137413541454331314535423730414642454331423332443443442220786D704D4D3A496E7374616E636549443D22786D702E6969643A413238
33444137393541454331314535423730414642454331423332443443442220786D703A43726561746F72546F6F6C3D2241646F62652050686F746F73686F7020
43432032303135204D6163696E746F7368223E203C786D704D4D3A4465726976656446726F6D2073745265663A696E7374616E636549443D2243353942433442
41323033324339414238413541444443363033343137334630222073745265663A646F63756D656E7449443D2243353942433442413230333243394142384135
41444443363033343137334630222F3E203C2F7264663A4465736372697074696F6E3E203C2F7264663A5244463E203C2F783A786D706D6574613E203C3F7870
61636B657420656E643D2272223F3EFFEE000E41646F62650064C000000001FFDB0084000604040405040605050609060506090B080606080B0C0A0A0B0A0A0C
100C0C0C0C0C0C100C0E0F100F0E0C1313141413131C1B1B1B1C1F1F1F1F1F1F1F1F1F1F010707070D0C0D181010181A1511151A1F1F1F1F1F1F1F1F1F1F1F1F
1F1F1F1F1F1F1F1F1F1F1F1F1F1F1F1F1F1F1F1F1F1F1F1F1F1F1F1F1F1F1F1F1F1F1F1F1FFFC00011080046007503011100021101031101FFC4007C00010003
01010100000000000000000000000306070405080101010101000000000000000000000000000102031000010303030203070403010000000000020001030405
061112072113314122513223141516086142331752433618110101010101000203010101000000000000010211213112415103226113FFDA000C030100021103
11003F00FAA501010101010101010101010101010101010101010101010101010101010101010101010101010101010101010101010101010101010101010101
01061F985B723C9F9CA6C669328BAD86DF15942B986DF532C62F20CCC0FF000C4C47AB1F57FD1749E471D4B75CEBB78BAEF9759793EFBC757CBCCB7FA4A3A20B
8505C2AB579C59DE26702277227D5A7F327F77A69AA9AE73A62D9AE556305B4E7DCA768BBE5D2E6B73B219554D05B2DB412C915344D10898EF0030DCDEB61F6F
4D5DDF556F278CE65D7BD1F36CCB26FC6BACBF0DCAA69AFD67A91092BE9253A79658E290189CCA270FF54DEAF6EDD539268FB5B8EA3CBF9AEE1167D814D49592
C7678E8E8EAEFD1C6643097D4C4589A7067DA5DA8DD8877783BF45667CA6BFA7B176E31BCDE6FBCABC8359357D4CB67B64F15B68684A590A980E377090A389DF
6096B4FABBB37EEFD56753C8DE2DBAAD6161D593E417ABCC5F9218CDA22AFA88ED551679659EDE329B539C8DF37A19C4CFB08BD03D5DBC996E4FF2E56DFBC576
829B32E4CE42CC69DF2BB8E3D69C66ABE9F47496B90A1DE4C7206F37021DDD61727D757EBA368CCAF92333BAB7DF8498565D969F1EF26D96EB7396B6E787C771
A5A3BCB11054176E19C44F7B3EFDC2706E12D7775F1E8964EC33ABCB3F4AD71BF2C647271E64B8FE415D54D7BFA3575D31CBACD29BD44D13432396C99DF7B944
60E40FAEBD1DBA6D5759F59C6EF2CAECCBB2ACA20FC68C6EF105E2BA2BB4F5318CF710A9986A4C5CAA3563998B7937A5BC5FC924FF004BAD5FA45838ABEDAAAC
C602B57275E3279E9A29653B4561D53C060E1DB723697417D8523137EAA6BE3E1AC73BF3D52EFD94DCABF9072AB76599D5D70CA8A4A93871FA6A6EFC74650B11
768E4ECBB7420602DCFA6BAF8F92B279E462EBDBDBC6C5BF28FEA1DDF75DBFEADF2FFF005BAB7CAF67B9FCDBBDDDDD9F4EEFF2EAB1F975F7EBF2AE66566E51B6
72F4997E298EC77AA596D216F779AAA9E0162797B85D0E58CF56DADE5A755659CE56753535D91DDC6584E71F7D5E7903348E9E86E972A61A1A6B5D29B4831422
F1BBB910918EBF0474D09FCFC13567391719BDED5631CC6F9C38EA8EEB8D63362A3BE59EA2A25A8B6DCCEA6288A2EE8B036F8E492322D0405DC74F1D7ABB2B6C
ACC9ACF916EC1F8A6AEC5C395F8757184D71BA53D5BD4F6DF58C26A98DC00449F4D76330F5F6A975EF5BCE399E33DC33813286E33CBE8F20A3ED649730863B54
273432930D00B490334A06602D21FC3EA5D19BD8B577EB9E7F95FADEFCB45E00C1EFF89E1F57164503C17BB857CB5754252473168E2003B8E32317D76B978F9A
C6EF6BA7F2CD93D5AB3F87349318A9FB3278A0BFC6E274CD30810482CFEB8FE23388B90F83BF9FB149CFCB5AEF3C6738962DCA17CE57B7E6D995A69EC91DA2DC
5451C314F14EF399B48CE4CD11CBB7ACE4EFABB79375F15AB67391CF39D5D76A27C6796706CEB26BAE2166A5C8AD193CFF003A612D4474F24136E33767EE1C7D
374A5E1AEADA783A7659E9CD66DE7E5D387F19E6141C7F9EC978088F2BCCE2AE98A82031ED84D3C32B471EF72EDB3949317EEDACDA754BA9D8671797F75E25EB
83EFD75E16B0DBDA95A9736B0C530C50B4B133C91CF29F7698A51378F4303D5BD5A6BD3A6AEACD7A97F9DB9FFA9728E31CE6B7F1FAC189D2DB7B990515404955
45DFA71D82253BBBF70A4689FF00907C0926A77A6B17E922CD811F22864D4ED75E3BB5E3D6E90241A9BA51CD4852836C72116184C8DD88C459FA2979FB6B3DEF
C3C3CC31FE622BBDE2927C76D99E586B1CCAD12D6BD2412D101B938C7EA780DDC7769AB78E8CEC4CACB13535FAEA4FEA1CB7FF003CFD91BE2FAFEEF98EC773E1
6BF35F31D9EE7BBAEDF3F77779E9D54FB4FB74FF00CEFD38DB161D84040404040404040404040404040404040404040404040404040404040404040404040404
040404040404041FFFD9}}
\par }{\fs20\lang1024\langfe1024\noproof {\shp{\*\shpinst\shpleft1440\shptop2070\shpright10800\shpbottom2070\shpfhdr1\shpbxpage\shpbxignore\shpbypage\shpbyignore\shpwr3\shpwrk0\shpfblwtxt0\shpz2\shplockanchor\shplid2049{\sp{\sn shapeType}{\sv 20}}{\sp{\sn fFlipH}{\sv 0}}{\sp{\sn fFlipV}{\sv 0}}{\sp{\sn shapePath}{\sv 4}}{\sp{\sn fFillOK}{\sv 0}}{\sp{\sn fFilled}{\sv 0}}{\sp{\sn fArrowheadsOK}{\sv 1}}{\sp{\sn posrelh}{\sv 1}}{\sp{\sn posrelv}{\sv 1}}{\sp{\sn fLayoutInCell}{\sv 1}}{\sp{\sn fLayoutInCell}{\sv 1}}}{\shprslt{\*\do\dobxpage\dobypage\dodhgt8194\dpline\dpptx0\dppty0\dpptx9920\dppty0\dpx1190\dpy2070\dpxsize9920\dpysize0\dplinew15\dplinecor0\dplinecog0\dplinecob0}}}}{\f0\fs16  \par }}{\footerf \pard\plain \s22\ql \b\f354\fs18  Page {\field{\*\fldinst PAGE}{\fldrslt 1}}{     }\'a9 2026 \uc2 Factiva, Inc.  All rights reserved.\par }{\footer \pard\plain \s22\ql \b\f354\fs18  Page {\field{\*\fldinst PAGE}{\fldrslt 1}} of {\field{\*\fldinst NUMPAGES}{\fldrslt 1}}{     }\'a9 2026 \uc2 Factiva, Inc.  All rights reserved.\par }\pard\plain \ql \li0\ri0\nowidctlpar\faauto\rin0\lin0\itap0 {\fs20 {\par\fs20{\*\shppict{\pict\pngblip\picw172\pich40\picscaley100\picscalex100\picwgoal2580\pichgoal600
47
4946383961AC002800F7FF00FFE8CDFFDAACFFA23CE6E6E6FBFBFB959595FFD6AD6D6D6DFFC98DFFB972FFC985FFC991A5A5A5FFD1A1B5B5B5FF850AFFDDB5FF
9308FFE4C6FFF4E8FFA535FFBE7C7A7A7ACBCBCBFF9B24858585FFF2E4C1C1C1F2F2F2FFAA45FFCE9CFFE3C5FFE3BEFFE6CDFFEBD4FF921AFF9316FFAD59FF9D
39F4F4F4FFF0E0EBEBEBFDFDFDFF8300FFA54AB8B8B8FF962AFF8A00FFFCF9C5C5C5FFCD90FFC17F777777828282FFDBB5AAAAAA7E7E7EFFF0DEFFFAF5717171
D4D4D4FFD6A5F8F8F8D7D7D7FFA1418E8E8EFFDFBCFFF8F0ECECECFF8E00FFB056FFC687FF9929FF9A32FFD096FFD6AAFFCE9BA0A0A0FFFDFBFFFBF7CDCDCDFF
B559FFF9F2DFDFDFFFD9A77C7C7CFFCC8D9B9B9BFFCA89BCBCBCFF8700FFCC96FFC1748B8B8BD1D1D1DCDCDCFFFEFDB2B2B2FFE4C26B6B6BFFD59F8888886868
689C9C9CFFE0C0FF9934FFF3E6FFA542FFB04AD2D2D2E4E4E4FFB469FFDEB2FFB05DFFECD8FFF7EEFFD19BF0F0F0FFD4A18A8A8AFFC27AFFA94EFFC488E0E0E0
FF8E1AFF880DD9D9D9FFA850FFE8D0ACACACFFC071FF9F2EFFB86DFF9721FFEFDBFF8D15FFAE48FFA244FFE4C8FFECD6FFD8B0929292FF9226FFBA68FFB965FF
DCB8FFBF76FFB162FFBE6CFFE5CAFFB66DFF9021FFAB55737373FFF1E2FFEEDDFFE9D2FF8205BEBEBEFFE6CAFFDEBBFFC282FFAE56FF8912FFB6639E9E9EFFB6
5BFF9D36FFB050FFF6ECFFEBD3FFE2C2FFE3C0FFE1BAFFBC6CFF7F00FFF6EAFFE7C8FF9426FFDBB2FFDBB0FFD9B2FFBC66FFB265FFAF4FFFA83FFFA644FF9818
FF8A15666666FF8000E8E8E8FF8100DADADAF7F7F7FF8400B1B1B1E3E3E3676767EEEEEE747474EFEFEFCECECEFFF5EAFFEED9F6F6F6E2E2E2818181FFF8EFFE
FEFEC8C8C8FF9D33FFF2E1BBBBBB989898FFDDBAAFAFAFDBDBDBFFAE5CFFF6E9E9E9E9FFD2A4FF8F20FF8B07FF8D06FFCC8CFFBB76FFBE71FFC579FF8408FFB8
5EFFC06EFF8D0EFFB25BFF8402FFAF60FFF2E3FFEDDAFFB454FFC386FFC882FFC88FFFCF9FFFD49BFFECD3FFEACFFFDEB9FFCA94FFB455FFE1C1FF8908FFFAF3
FF8F08FF8C11FFC388FFFFFF21FF0B584D502044617461584D503C3F787061636B657420626567696E3D22EFBBBF222069643D2257354D304D7043656869487A
7265537A4E54637A6B633964223F3E203C783A786D706D65746120786D6C6E733A783D2261646F62653A6E733A6D6574612F2220783A786D70746B3D2241646F
626520584D5020436F726520352E362D633131312037392E3135383332352C20323031352F30392F31302D30313A31303A32302020202020202020223E203C72
64663A52444620786D6C6E733A7264663D22687474703A2F2F7777772E77332E6F72672F313939392F30322F32322D7264662D73796E7461782D6E7323223E20
3C7264663A4465736372697074696F6E207264663A61626F75743D222220786D6C6E733A786D703D22687474703A2F2F6E732E61646F62652E636F6D2F786170
2F312E302F2220786D6C6E733A786D704D4D3D22687474703A2F2F6E732E61646F62652E636F6D2F7861702F312E302F6D6D2F2220786D6C6E733A7374526566
3D22687474703A2F2F6E732E61646F62652E636F6D2F7861702F312E302F73547970652F5265736F75726365526566232220786D703A43726561746F72546F6F
6C3D2241646F62652050686F746F73686F70204343203230313520284D6163696E746F7368292220786D704D4D3A496E7374616E636549443D22786D702E6969
643A42384642314346443530463531314536393838464545313643313433353536382220786D704D4D3A446F63756D656E7449443D22786D702E6469643A4238
464231434645353046353131453639383846454531364331343335353638223E203C786D704D4D3A4465726976656446726F6D2073745265663A696E7374616E
636549443D22786D702E6969643A4238464231434642353046353131453639383846454531364331343335353638222073745265663A646F63756D656E744944
3D22786D702E6469643A4238464231434643353046353131453639383846454531364331343335353638222F3E203C2F7264663A4465736372697074696F6E3E
203C2F7264663A5244463E203C2F783A786D706D6574613E203C3F787061636B657420656E643D2272223F3E01FFFEFDFCFBFAF9F8F7F6F5F4F3F2F1F0EFEEED
ECEBEAE9E8E7E6E5E4E3E2E1E0DFDEDDDCDBDAD9D8D7D6D5D4D3D2D1D0CFCECDCCCBCAC9C8C7C6C5C4C3C2C1C0BFBEBDBCBBBAB9B8B7B6B5B4B3B2B1B0AFAEAD
ACABAAA9A8A7A6A5A4A3A2A1A09F9E9D9C9B9A999897969594939291908F8E8D8C8B8A898887868584838281807F7E7D7C7B7A797877767574737271706F6E6D
6C6B6A696867666564636261605F5E5D5C5B5A595857565554535251504F4E4D4C4B4A494847464544434241403F3E3D3C3B3A393837363534333231302F2E2D
2C2B2A292827262524232221201F1E1D1C1B1A191817161514131211100F0E0D0C0B0A090807060504030201000021F904010000FF002C00000000AC00280040
08FF00FF091C48B020B379D004522A6248A018324E0A4A9C48B1A2C58B18336ADCC8B1634126060A222A5210D78B7F42B48CF86780D13F452B56DC2308660B1A
8F3873EADCC9F3221A13975CA22818F15F3C163725AA99F7AF9D29819504BED136C7920BAA1983F5DA7A41A2A7ADBD92099C02B6ABC562605B4CBCB175873089
1CC66C2536310B582218716CBD22F118D80D025B800D54518AAFC3BEFEC9C154E21FA85321FE09680742103330033F5478752D07A27F6218FE4B208925B0C38D
316AE54AF00A586504BF80E59177EB011F050718DB5A6062DCB913056F6D56BB17DF813FC0F6CE68612B0E89AB0E2159F6CFC5B035FFF2C11038414D411DA9FE
4DFF50B2ED9F3C74D87BAA5FCFBE3DC6EDFF523DB252908C20818872094C28FE910C81F0B927E080046E149126220CF4844032D8F20F043248B0C62621AC0288
090B0021CB26DE7442DD07068893C03F1260B6110F60A5A8A203059DA1E28BC108B40758614CC4C05666E066CD8B3CF692C23F2A20D3235804ED30E45641A840
101447F6B2810B88CD548B2604D9420735765884821152802087214A48F1CF0C3354871813AA35D90B5D039105D66E2A6630105A5BA925115BBDB805975C6BD6
D5240304E9756417044874420C8DBC58E34084C404CA68874901C46102E9E04B1AF200B3C502480C24051C0B0EF2C21CFF001153541A1583830555FC20D11738
54FF81CCA20285818319299A7180055D1C2311A246F6620C0DD69845513319586001601309D3040DB882A52B0E4D105480B2D84CD485B2652819CD06D664B043
B46654D184331829F1C20B3A6C84C5BA0B1628EFBCF45AE4192598D5130E75124160C576CC74C08589F5166CB07B4668A1059A03B5520433142DA1D23F913420
50210A0372F0C61C6F14D30A49FC330F094909D4C12303C963F122282492042709E8F14F1CC000B3C03F1FC7C1910F294CF1431B175C00C5146F5594020F4107
CD831FDCE036500A03FC52A844C20C3080AFFF54FDCBD65C77FDCBD5B97991B4323C7C41C4D40325E3CC0F3C4011F40F5857E4C31ECA5CE0453667575A33300F
FCFF438A16A7FCA384833984239025AF945081075B3CF248BBC008F0CF2BC04432C9611EC8B1F71B59BD46D0090E8055C640CE8055CD4574F662674178EA5990
307CB228915D5B4D51DC19057991095862FD437B2F4DF42E1001DC0473C235E5F8C2C23FD3AC00CC3F146821260C109459D104E7303A821C36D40C4A25BCF862
829817ADD68BAB04F1C0A79C638145430DF0C76FEE9C69ADD556D104FDD6E7EC60E1103FFCCFC0C1E90622A86A1184081900CB8F0412081559801803904824B6
D30760BC6219A25801273E41827FD483151541C2CD14F00F3048E01F80E8833EA2A2084E68C47C6108C60F9421A81DA0AD7D5BA18D45DC00962CD8AF17B7D913
70FFF8B79513142708C1F0030F6EB41569644418AED94A17FE81862498603B97388C0E9EF006407CC031AFE8861A40210A1B98201FCB10013FBC539023E04120
1E900526C857BEB214E477B422C001C0B2031AF8F18F1658E03FA221A8AD58E01942024B1028A23F3615644660C9C41FFFB84802EEA520C9008B0506D28C371D
40922A2A06A386310C8B8520117A00C0CD4A050C4C304F17FFB0070698E10453C0E11F4E6007C1FEA10B5296AC63C00CE64000308835F04B208028042C03F082
71FC83164500C03F62118082CC0209E9089030B7C94D8940A2085410083C76410D8160A0088BE8A63AD759117314A1070CA2800604B28B22C8819DF8ECA6BAD8
E5FF2E78E5F39FF45A050990309481E4000B09710749FEB12E127D437204B103093A4047805A543D8040820926F00F2A9070224E100247FF3187217C62182B28
930D0A218A8BBA7427DA20653C08028378B9830BFF90410704228059E00C1836F8C722BA71212008641AA40CEA4B979A9177C42424E1780104FEC18A700A6409
FDE044395ED1005F1895258789041A7CD189794E62057DB8A74606B03B1EEDE00A312A880F0A30A41D2CF01770F2C4441AD88B4C140A4F4D3A8011FF31801AF4
C818A31B4823A2A522636480598F2C45B0DE4483464490117C70C43D2560844848C4158320D11BF270843C2C62028918050C34A181773426018791D90C0E0184
91FFD6712B34B843108290813DCE66203E88D618CA10842E18B70BC4ED5DEA564790D6E1260B387806FC7000A74CC40F0765784B72DA52DCE322D7800211D401
32D0DDE68005BC1C48D118C85B065935D152BE0046270432832FDA0203FF00003EFEE188A01044076A784A0510301A6DFC63199818D10710738BCE6DC50B12A1
2B10A7269B07A3AE7E77BA9F447C10BBE0808503B793C805ECF80FC062C4061189C33002A70A9F82E03F49B01845C26987D0B260181F88477C2BF08F1044C6C1
BD8082449818C47FB8A917C6A2C8727FE8BAFCF1C99104F91D5E2E2228DC15A4C24816C82F5214840B28A9208E404C3C74B080A87C62AA5488052DDE58111454
13FF1556150800EE19BEC3ACD222E6ABC115AE708670A50836381C9219E8572726E36F208DF4D3912A19DEAD20C31A67D87310186B8D8238C0B7292A405C25C0
8751343811A7990029D4F1A87F80C07015F9C4119E30847F20E00528E8DE0A7AA0892494E30FDAA488F97844035112E4C82D2082D70600628194AED012E16B93
11FD6445F782072918B6D31A3D24C852E4170E48E456DAF08F255CE201069043022C06068E6AA234F5E801C424428812A882221C65411F8050D0DBF622AEFF38
762F12DB26B038D122278013A0241204DCFAA6D944ECC52F8A03DE7FD0E0C31AA982219F508E9AB9000C9D38CC35FE008C49FC430BF100831372A104496CE10F
8EFF7805479911CE1C70611F7350D81016B1B711A589359C8CD60E083280C134E3CB14A906589E813E027841DBDC16E2FE0AF215AEDC7022823ACE400ABE956C
10441A17F8420A4E50A81430B11756864A3E8690000F74639E0978C53A3E90047FA461A35B80410590A0861EE8801A6C280F0CC223905AB47A23DBED450C2462
DE5EEC6120616892D5119DC01E3502E805A90358062E9132348920BE65F440B001966CFDE3044D1AFC403E26B951D4ACD57AA8C402F8100A1488491E7C87C12E
9440105750400773C899809EFE0F0E70ED6A1C88864584418401E46D3D043846D4B6C681C17A84F73E4886D5E226111BACE21FED12481F56700881A01805C3D0
C2763FEC000E6936AC082010C8DF6BE142A6BA3F2309D3021DFE31845AA0446111219540E2658A081404635AA031EF37801BA109A8C06603510FA8305507754C
FF9003B880800438811A010B51000F9821065C506F04D1035C20266A10051F458124C8116A002A02410E11900302410F5355823038100101003B}}
\par\par \b  \highlight22\uc2 African Markets \highlight\uc2  -  \highlight22\uc2 Factors to watch \highlight\uc2  on January 21\b0\par\par\uc2 526 \uc2 words\par \uc2 21 January 2026\par 00:08\par \uc2 Reuters News\par \uc2 LBA\par \uc2 English\par \uc2 Copyright 2026 Thomson Reuters. All Rights Reserved. \par \par \uc2 \f2 \par        NAIROBI, Jan 21 (Reuters) - The following debt and currency market moves and political events may affect African markets on Wednesday.\par               - - - - -\par  GLOBAL MARKETS\par  Asian stocks extended their losses for a third session on\par  Wednesday, undone by heightened tensions over U.S. threats\par  to acquire Greenland ahead of President \f28 \uc2 \f2 Donald Trump\f28 \uc2 \f2 's\par  Davos speech, while a global bond rout appeared to slow for\par  now.                        \par   \par  WORLD OIL PRICES\par  Oil prices fell on Wednesday as an expected build-up of\par  U.S. crude inventories outweighed a temporary halt in\par  output at two large fields in Kazakhstan and geopolitical\par  pressure from U.S. threats of tariffs over its bid to gain\par  control of Greenland.                   \par      \par  EMERGING MARKETS\par  For the top emerging markets news, double click on\par             \par   \par  AFRICA STOCKS\par  For the latest news on South African stocks, click on     \par   \par  SOUTH AFRICA MARKETS\par  The South African rand traded weaker for most of Tuesday's\par  session as risk appetite waned amid geopolitical tensions,\par  while traders also took in weaker-than-expected domestic\par  mining data.            \par   \par  NIGERIA SECURITY\par  Five soldiers and one police officer were killed when\par  troops were ambushed by militants in northwestern Nigeria\par  on Monday, the military said on Tuesday.            \par   \par  WEST AFRICA OIL\par  An overhang of February-loading West African crude cargoes\par  was heard to be shrinking on Tuesday while differentials\par  remained under downward pressure.            \par   \par  IVORY COAST COCOA\par  Ivory Coast's Coffee and Cocoa Council will buy 100,000\par  metric tons of surplus cocoa, Kobenan Kouassi Adjoumani,\par  the agriculture minister in the world's top cocoa grower,\par  told Reuters on Tuesday.            \par   \par  GHANA COCOA\par  Some of Ghana's farmers have not been paid and investment\par  in the next harvest is at risk as international traders\par  refuse to pay the upfront sums the state regulator has\par  sought under a new model for purchasing cocoa beans,\par  sources said.            \par     \par  BENIN POLITICS\par  Benin's political opposition has failed to win any seats in\par  parliament, according to provisional election results\par  released over the weekend, as two parties aligned with\par  President Patrice Talon secured control over the entire\par  body.                    \par   \par  MAURITIUS-CHAGOS SOVEREIGNTY\par  Mauritius said its sovereignty over the Chagos Archipelago\par  had been unequivocally recognised by international law,\par  responding to a social media post by U.S. President \f28 \uc2 \f2 Donald\par  Trump\f28 \uc2 \f2  that criticised Britain's deal to cede the islands to\par  Mauritius.            \par   \par  TOGO-BURKINA FASO RELATIONS\par  Togo has arrested and expelled Burkina Faso's former\par  president to his home country after officials there accused\par  him of attempting a coup, two sources told Reuters on\par  Tuesday.            \par   \par  DEMOCRATIC REPUBLIC OF CONGO MINING\par  The Democratic Republic of Congo has sent Washington a\par  shortlist of state-owned assets - including manganese,\par  copper-cobalt, gold and lithium projects - for U.S.\par  investors to consider as part of a minerals partnership,\par  two senior Congolese officials said.            \par   \par  ETHIOPIA AVIATION\par  Africa's largest carrier \f28 \uc2 \f2 Ethiopian Airlines\f28 \uc2 \f2  placed an order\par  for nine Boeing BA.N 787 Dreamliner jets amid growing\par  demand for long-haul travel, the two companies said on\par  Tuesday.            \par          \par   \par   \par  For the latest precious metals report click on        \par  For the latest base metals report click on         \par  For the latest crude oil report click on       \par      \par \par (Compiled by Nairobi Newsroom)\f28 \par \par \uc2 Released: 2026-1-21T06:08:21.000Z \par \par \uc2 Document LBA0000020260121em1l009kh\par }\page {\par\fs20{\*\shppict{\pict\pngblip\picw172\pich40\picscaley100\picscalex100\picwgoal2580\pichgoal600
47
4946383961AC002800F7FF00FFE8CDFFDAACFFA23CE6E6E6FBFBFB959595FFD6AD6D6D6DFFC98DFFB972FFC985FFC991A5A5A5FFD1A1B5B5B5FF850AFFDDB5FF
9308FFE4C6FFF4E8FFA535FFBE7C7A7A7ACBCBCBFF9B24858585FFF2E4C1C1C1F2F2F2FFAA45FFCE9CFFE3C5FFE3BEFFE6CDFFEBD4FF921AFF9316FFAD59FF9D
39F4F4F4FFF0E0EBEBEBFDFDFDFF8300FFA54AB8B8B8FF962AFF8A00FFFCF9C5C5C5FFCD90FFC17F777777828282FFDBB5AAAAAA7E7E7EFFF0DEFFFAF5717171
D4D4D4FFD6A5F8F8F8D7D7D7FFA1418E8E8EFFDFBCFFF8F0ECECECFF8E00FFB056FFC687FF9929FF9A32FFD096FFD6AAFFCE9BA0A0A0FFFDFBFFFBF7CDCDCDFF
B559FFF9F2DFDFDFFFD9A77C7C7CFFCC8D9B9B9BFFCA89BCBCBCFF8700FFCC96FFC1748B8B8BD1D1D1DCDCDCFFFEFDB2B2B2FFE4C26B6B6BFFD59F8888886868
689C9C9CFFE0C0FF9934FFF3E6FFA542FFB04AD2D2D2E4E4E4FFB469FFDEB2FFB05DFFECD8FFF7EEFFD19BF0F0F0FFD4A18A8A8AFFC27AFFA94EFFC488E0E0E0
FF8E1AFF880DD9D9D9FFA850FFE8D0ACACACFFC071FF9F2EFFB86DFF9721FFEFDBFF8D15FFAE48FFA244FFE4C8FFECD6FFD8B0929292FF9226FFBA68FFB965FF
DCB8FFBF76FFB162FFBE6CFFE5CAFFB66DFF9021FFAB55737373FFF1E2FFEEDDFFE9D2FF8205BEBEBEFFE6CAFFDEBBFFC282FFAE56FF8912FFB6639E9E9EFFB6
5BFF9D36FFB050FFF6ECFFEBD3FFE2C2FFE3C0FFE1BAFFBC6CFF7F00FFF6EAFFE7C8FF9426FFDBB2FFDBB0FFD9B2FFBC66FFB265FFAF4FFFA83FFFA644FF9818
FF8A15666666FF8000E8E8E8FF8100DADADAF7F7F7FF8400B1B1B1E3E3E3676767EEEEEE747474EFEFEFCECECEFFF5EAFFEED9F6F6F6E2E2E2818181FFF8EFFE
FEFEC8C8C8FF9D33FFF2E1BBBBBB989898FFDDBAAFAFAFDBDBDBFFAE5CFFF6E9E9E9E9FFD2A4FF8F20FF8B07FF8D06FFCC8CFFBB76FFBE71FFC579FF8408FFB8
5EFFC06EFF8D0EFFB25BFF8402FFAF60FFF2E3FFEDDAFFB454FFC386FFC882FFC88FFFCF9FFFD49BFFECD3FFEACFFFDEB9FFCA94FFB455FFE1C1FF8908FFFAF3
FF8F08FF8C11FFC388FFFFFF21FF0B584D502044617461584D503C3F787061636B657420626567696E3D22EFBBBF222069643D2257354D304D7043656869487A
7265537A4E54637A6B633964223F3E203C783A786D706D65746120786D6C6E733A783D2261646F62653A6E733A6D6574612F2220783A786D70746B3D2241646F
626520584D5020436F726520352E362D633131312037392E3135383332352C20323031352F30392F31302D30313A31303A32302020202020202020223E203C72
64663A52444620786D6C6E733A7264663D22687474703A2F2F7777772E77332E6F72672F313939392F30322F32322D7264662D73796E7461782D6E7323223E20
3C7264663A4465736372697074696F6E207264663A61626F75743D222220786D6C6E733A786D703D22687474703A2F2F6E732E61646F62652E636F6D2F786170
2F312E302F2220786D6C6E733A786D704D4D3D22687474703A2F2F6E732E61646F62652E636F6D2F7861702F312E302F6D6D2F2220786D6C6E733A7374526566
3D22687474703A2F2F6E732E61646F62652E636F6D2F7861702F312E302F73547970652F5265736F75726365526566232220786D703A43726561746F72546F6F
6C3D2241646F62652050686F746F73686F70204343203230313520284D6163696E746F7368292220786D704D4D3A496E7374616E636549443D22786D702E6969
643A42384642314346443530463531314536393838464545313643313433353536382220786D704D4D3A446F63756D656E7449443D22786D702E6469643A4238
464231434645353046353131453639383846454531364331343335353638223E203C786D704D4D3A4465726976656446726F6D2073745265663A696E7374616E
636549443D22786D702E6969643A4238464231434642353046353131453639383846454531364331343335353638222073745265663A646F63756D656E744944
3D22786D702E6469643A4238464231434643353046353131453639383846454531364331343335353638222F3E203C2F7264663A4465736372697074696F6E3E
203C2F7264663A5244463E203C2F783A786D706D6574613E203C3F787061636B657420656E643D2272223F3E01FFFEFDFCFBFAF9F8F7F6F5F4F3F2F1F0EFEEED
ECEBEAE9E8E7E6E5E4E3E2E1E0DFDEDDDCDBDAD9D8D7D6D5D4D3D2D1D0CFCECDCCCBCAC9C8C7C6C5C4C3C2C1C0BFBEBDBCBBBAB9B8B7B6B5B4B3B2B1B0AFAEAD
ACABAAA9A8A7A6A5A4A3A2A1A09F9E9D9C9B9A999897969594939291908F8E8D8C8B8A898887868584838281807F7E7D7C7B7A797877767574737271706F6E6D
6C6B6A696867666564636261605F5E5D5C5B5A595857565554535251504F4E4D4C4B4A494847464544434241403F3E3D3C3B3A393837363534333231302F2E2D
2C2B2A292827262524232221201F1E1D1C1B1A191817161514131211100F0E0D0C0B0A090807060504030201000021F904010000FF002C00000000AC00280040
08FF00FF091C48B020B379D004522A6248A018324E0A4A9C48B1A2C58B18336ADCC8B1634126060A222A5210D78B7F42B48CF86780D13F452B56DC2308660B1A
8F3873EADCC9F3221A13975CA22818F15F3C163725AA99F7AF9D29819504BED136C7920BAA1983F5DA7A41A2A7ADBD92099C02B6ABC562605B4CBCB175873089
1CC66C2536310B582218716CBD22F118D80D025B800D54518AAFC3BEFEC9C154E21FA85321FE09680742103330033F5478752D07A27F6218FE4B208925B0C38D
316AE54AF00A586504BF80E59177EB011F050718DB5A6062DCB913056F6D56BB17DF813FC0F6CE68612B0E89AB0E2159F6CFC5B035FFF2C11038414D411DA9FE
4DFF50B2ED9F3C74D87BAA5FCFBE3DC6EDFF523DB252908C20818872094C28FE910C81F0B927E080046E149126220CF4844032D8F20F043248B0C62621AC0288
090B0021CB26DE7442DD07068893C03F1260B6110F60A5A8A203059DA1E28BC108B40758614CC4C05666E066CD8B3CF692C23F2A20D3235804ED30E45641A840
101447F6B2810B88CD548B2604D9420735765884821152802087214A48F1CF0C3354871813AA35D90B5D039105D66E2A6630105A5BA925115BBDB805975C6BD6
D5240304E9756417044874420C8DBC58E34084C404CA68874901C46102E9E04B1AF200B3C502480C24051C0B0EF2C21CFF001153541A1583830555FC20D11738
54FF81CCA20285818319299A7180055D1C2311A246F6620C0DD69845513319586001601309D3040DB882A52B0E4D105480B2D84CD485B2652819CD06D664B043
B46654D184331829F1C20B3A6C84C5BA0B1628EFBCF45AE4192598D5130E75124160C576CC74C08589F5166CB07B4668A1059A03B5520433142DA1D23F913420
50210A0372F0C61C6F14D30A49FC330F094909D4C12303C963F122282492042709E8F14F1CC000B3C03F1FC7C1910F294CF1431B175C00C5146F5594020F4107
CD831FDCE036500A03FC52A844C20C3080AFFF54FDCBD65C77FDCBD5B97991B4323C7C41C4D40325E3CC0F3C4011F40F5857E4C31ECA5CE0453667575A33300F
FCFF438A16A7FCA384833984239025AF945081075B3CF248BBC008F0CF2BC04432C9611EC8B1F71B59BD46D0090E8055C640CE8055CD4574F662674178EA5990
307CB228915D5B4D51DC19057991095862FD437B2F4DF42E1001DC0473C235E5F8C2C23FD3AC00CC3F146821260C109459D104E7303A821C36D40C4A25BCF862
829817ADD68BAB04F1C0A79C638145430DF0C76FEE9C69ADD556D104FDD6E7EC60E1103FFCCFC0C1E90622A86A1184081900CB8F0412081559801803904824B6
D30760BC6219A25801273E41827FD483151541C2CD14F00F3048E01F80E8833EA2A2084E68C47C6108C60F9421A81DA0AD7D5BA18D45DC00962CD8AF17B7D913
70FFF8B79513142708C1F0030F6EB41569644418AED94A17FE81862498603B97388C0E9EF006407CC031AFE8861A40210A1B98201FCB10013FBC539023E04120
1E900526C857BEB214E477B422C001C0B2031AF8F18F1658E03FA221A8AD58E01942024B1028A23F3615644660C9C41FFFB84802EEA520C9008B0506D28C371D
40922A2A06A386310C8B8520117A00C0CD4A050C4C304F17FFB0070698E10453C0E11F4E6007C1FEA10B5296AC63C00CE64000308835F04B208028042C03F082
71FC83164500C03F62118082CC0209E9089030B7C94D8940A2085410083C76410D8160A0088BE8A63AD759117314A1070CA2800604B28B22C8819DF8ECA6BAD8
E5FF2E78E5F39FF45A050990309481E4000B09710749FEB12E127D437204B103093A4047805A543D8040820926F00F2A9070224E100247FF3187217C62182B28
930D0A218A8BBA7427DA20653C08028378B9830BFF90410704228059E00C1836F8C722BA71212008641AA40CEA4B979A9177C42424E1780104FEC18A700A6409
FDE044395ED1005F1895258789041A7CD189794E62057DB8A74606B03B1EEDE00A312A880F0A30A41D2CF01770F2C4441AD88B4C140A4F4D3A8011FF31801AF4
C818A31B4823A2A522636480598F2C45B0DE4483464490117C70C43D2560844848C4158320D11BF270843C2C62028918050C34A181773426018791D90C0E0184
91FFD6712B34B843108290813DCE66203E88D618CA10842E18B70BC4ED5DEA564790D6E1260B387806FC7000A74CC40F0765784B72DA52DCE322D7800211D401
32D0DDE68005BC1C48D118C85B065935D152BE0046270432832FDA0203FF00003EFEE188A01044076A784A0510301A6DFC63199818D10710738BCE6DC50B12A1
2B10A7269B07A3AE7E77BA9F447C10BBE0808503B793C805ECF80FC062C4061189C33002A70A9F82E03F49B01845C26987D0B260181F88477C2BF08F1044C6C1
BD8082449818C47FB8A917C6A2C8727FE8BAFCF1C99104F91D5E2E2228DC15A4C24816C82F5214840B28A9208E404C3C74B080A87C62AA5488052DDE58111454
13FF1556150800EE19BEC3ACD222E6ABC115AE708670A50836381C9219E8572726E36F208DF4D3912A19DEAD20C31A67D87310186B8D8238C0B7292A405C25C0
8751343811A7990029D4F1A87F80C07015F9C4119E30847F20E00528E8DE0A7AA0892494E30FDAA488F97844035112E4C82D2082D70600628194AED012E16B93
11FD6445F782072918B6D31A3D24C852E4170E48E456DAF08F255CE201069043022C06068E6AA234F5E801C424428812A882221C65411F8050D0DBF622AEFF38
762F12DB26B038D122278013A0241204DCFAA6D944ECC52F8A03DE7FD0E0C31AA982219F508E9AB9000C9D38CC35FE008C49FC430BF100831372A104496CE10F
8EFF7805479911CE1C70611F7350D81016B1B711A589359C8CD60E083280C134E3CB14A906589E813E027841DBDC16E2FE0AF215AEDC7022823ACE400ABE956C
10441A17F8420A4E50A81430B11756864A3E8690000F74639E0978C53A3E90047FA461A35B80410590A0861EE8801A6C280F0CC223905AB47A23DBED450C2462
DE5EEC6120616892D5119DC01E3502E805A90358062E9132348920BE65F440B001966CFDE3044D1AFC403E26B951D4ACD57AA8C402F8100A1488491E7C87C12E
9440105750400773C899809EFE0F0E70ED6A1C88864584418401E46D3D043846D4B6C681C17A84F73E4886D5E226111BACE21FED12481F56700881A01805C3D0
C2763FEC000E6936AC082010C8DF6BE142A6BA3F2309D3021DFE31845AA0446111219540E2658A081404635AA031EF37801BA109A8C06603510FA8305507754C
FF9003B880800438811A010B51000F9821065C506F04D1035C20266A10051F458124C8116A002A02410E11900302410F5355823038100101003B}}
\par\par \b  \highlight22\uc2 African Markets \highlight\uc2  -  \highlight22\uc2 Factors to watch \highlight\uc2  on January 20\b0\par\par\uc2 508 \uc2 words\par \uc2 20 January 2026\par 00:45\par \uc2 Reuters News\par \uc2 LBA\par \uc2 English\par \uc2 Copyright 2026 Thomson Reuters. All Rights Reserved. \par \par \uc2 \f2 \par        NAIROBI, Jan 20 (Reuters) - The following debt and\par currency market moves and political events may affect African\par markets on Tuesday.\par               - - - - -\par  EVENTS\par  South African government bond auction\par  South Africa's November mining data            \par  \par  GLOBAL MARKETS\par  Asian stocks fell on Tuesday, while the dollar remained\par  under pressure and \f28 \uc2 \f2 U.S. Treasury\f28 \uc2 \f2  yields climbed to their\par  highest level in more than four months, as a resurgence of\par  trade-war concerns hit risk sentiment and sparked selling in\par  U.S. assets.                        \par  \par  WORLD OIL PRICES\par  Oil prices rose on Tuesday after better-than-expected\par  economic growth data from China lifted demand optimism, with\par  markets also watching President \f28 \uc2 \f2 Donald Trump\f28 \uc2 \f2 's threats of\par  increased U.S. tariffs on European nations over his desire\par  to buy Greenland.                   \par  \par  EMERGING MARKETS\par  For the top emerging markets news, double click on\par             \par  \par  AFRICA STOCKS\par  For the latest news on South African stocks, click on     \par  \par  SOUTH AFRICA MARKETS\par  South Africa's rand was subdued on Monday as risk appetite\par  waned amid geopolitical tensions and traders looked ahead to\par  domestic inflation data due this week for clues on the\par  central bank's rate-cutting path.            \par  \par  NIGERIA SECURITY\par  Armed bandits abducted dozens of worshippers from two\par  churches in Nigeria's Kaduna state, police said on Monday,\par  while a senior church leader put the number of those missing\par  at more than 160.            \par  \par  MOZAMBIQUE FLOODS\par  Severe floods from heavy rains have forced thousands to flee\par  homes in Mozambique and left some stranded on roofs as\par  surging waters swamp settlements, aid workers and witnesses\par  said on Monday.            \par  \par  IVORY COAST COCOA\par  Mostly below-average rains combined with sunny intervals\par  last week in much of the Ivory Coast's main cocoa regions\par  supported the development of the upcoming April-to-September\par  mid-crop, farmers said on Monday.            \par  \par  WEST AFRICA OIL\par  West African crude oil differentials narrowed as high\par  freight costs continued to weigh on the market's\par  competitiveness.            \par  \par  BENIN POLITICS\par  Benin's political opposition has failed to win any seats in\par  parliament, according to provisional election results\par  released over the weekend, as two parties aligned with\par  President Patrice Talon secured control over the entire\par  body.                    \par  \par  DEMOCRATIC REPUBLIC OF CONGO SECURITY\par  Congolese soldiers and combatants from a pro-government\par  militia have re-entered the eastern town of Uvira, residents\par  said on Monday, just over a month after it fell to\par  Rwanda-backed M23 rebels in a blow to peace efforts mediated\par  by the Trump administration.            \par  \par  KENYA OIL PIPELINE\par  Kenya began selling a 65% stake in its state oil pipeline\par  company on Monday, seeking to raise 106.3 billion shillings\par  ($825 million) in what would be East Africa's biggest\par  initial public offering in local-currency terms.            \par  \par  SOUTH SUDAN SECURITY    \par  South Sudan's main opposition faction called on its forces\par  on Monday to advance on the capital Juba after they captured\par  a strategic town last week.            \par  \par  \par  \par      For the latest precious metals report click on        \par      For the latest base metals report click on         \par      For the latest crude oil report click on       \par  \par \par  (Compiled by Nairobi Newsroom)\f28 \par \par \uc2 Released: 2026-1-20T06:45:48.000Z \par \par \uc2 Document LBA0000020260120em1k00ahv\par }\page {\par\fs20{\*\shppict{\pict\pngblip\picw172\pich40\picscaley100\picscalex100\picwgoal2580\pichgoal600
47
4946383961AC002800F7FF00FFE8CDFFDAACFFA23CE6E6E6FBFBFB959595FFD6AD6D6D6DFFC98DFFB972FFC985FFC991A5A5A5FFD1A1B5B5B5FF850AFFDDB5FF
9308FFE4C6FFF4E8FFA535FFBE7C7A7A7ACBCBCBFF9B24858585FFF2E4C1C1C1F2F2F2FFAA45FFCE9CFFE3C5FFE3BEFFE6CDFFEBD4FF921AFF9316FFAD59FF9D
39F4F4F4FFF0E0EBEBEBFDFDFDFF8300FFA54AB8B8B8FF962AFF8A00FFFCF9C5C5C5FFCD90FFC17F777777828282FFDBB5AAAAAA7E7E7EFFF0DEFFFAF5717171
D4D4D4FFD6A5F8F8F8D7D7D7FFA1418E8E8EFFDFBCFFF8F0ECECECFF8E00FFB056FFC687FF9929FF9A32FFD096FFD6AAFFCE9BA0A0A0FFFDFBFFFBF7CDCDCDFF
B559FFF9F2DFDFDFFFD9A77C7C7CFFCC8D9B9B9BFFCA89BCBCBCFF8700FFCC96FFC1748B8B8BD1D1D1DCDCDCFFFEFDB2B2B2FFE4C26B6B6BFFD59F8888886868
689C9C9CFFE0C0FF9934FFF3E6FFA542FFB04AD2D2D2E4E4E4FFB469FFDEB2FFB05DFFECD8FFF7EEFFD19BF0F0F0FFD4A18A8A8AFFC27AFFA94EFFC488E0E0E0
FF8E1AFF880DD9D9D9FFA850FFE8D0ACACACFFC071FF9F2EFFB86DFF9721FFEFDBFF8D15FFAE48FFA244FFE4C8FFECD6FFD8B0929292FF9226FFBA68FFB965FF
DCB8FFBF76FFB162FFBE6CFFE5CAFFB66DFF9021FFAB55737373FFF1E2FFEEDDFFE9D2FF8205BEBEBEFFE6CAFFDEBBFFC282FFAE56FF8912FFB6639E9E9EFFB6
5BFF9D36FFB050FFF6ECFFEBD3FFE2C2FFE3C0FFE1BAFFBC6CFF7F00FFF6EAFFE7C8FF9426FFDBB2FFDBB0FFD9B2FFBC66FFB265FFAF4FFFA83FFFA644FF9818
FF8A15666666FF8000E8E8E8FF8100DADADAF7F7F7FF8400B1B1B1E3E3E3676767EEEEEE747474EFEFEFCECECEFFF5EAFFEED9F6F6F6E2E2E2818181FFF8EFFE
FEFEC8C8C8FF9D33FFF2E1BBBBBB989898FFDDBAAFAFAFDBDBDBFFAE5CFFF6E9E9E9E9FFD2A4FF8F20FF8B07FF8D06FFCC8CFFBB76FFBE71FFC579FF8408FFB8
5EFFC06EFF8D0EFFB25BFF8402FFAF60FFF2E3FFEDDAFFB454FFC386FFC882FFC88FFFCF9FFFD49BFFECD3FFEACFFFDEB9FFCA94FFB455FFE1C1FF8908FFFAF3
FF8F08FF8C11FFC388FFFFFF21FF0B584D502044617461584D503C3F787061636B657420626567696E3D22EFBBBF222069643D2257354D304D7043656869487A
7265537A4E54637A6B633964223F3E203C783A786D706D65746120786D6C6E733A783D2261646F62653A6E733A6D6574612F2220783A786D70746B3D2241646F
626520584D5020436F726520352E362D633131312037392E3135383332352C20323031352F30392F31302D30313A31303A32302020202020202020223E203C72
64663A52444620786D6C6E733A7264663D22687474703A2F2F7777772E77332E6F72672F313939392F30322F32322D7264662D73796E7461782D6E7323223E20
3C7264663A4465736372697074696F6E207264663A61626F75743D222220786D6C6E733A786D703D22687474703A2F2F6E732E61646F62652E636F6D2F786170
2F312E302F2220786D6C6E733A786D704D4D3D22687474703A2F2F6E732E61646F62652E636F6D2F7861702F312E302F6D6D2F2220786D6C6E733A7374526566
3D22687474703A2F2F6E732E61646F62652E636F6D2F7861702F312E302F73547970652F5265736F75726365526566232220786D703A43726561746F72546F6F
6C3D2241646F62652050686F746F73686F70204343203230313520284D6163696E746F7368292220786D704D4D3A496E7374616E636549443D22786D702E6969
643A42384642314346443530463531314536393838464545313643313433353536382220786D704D4D3A446F63756D656E7449443D22786D702E6469643A4238
464231434645353046353131453639383846454531364331343335353638223E203C786D704D4D3A4465726976656446726F6D2073745265663A696E7374616E
636549443D22786D702E6969643A4238464231434642353046353131453639383846454531364331343335353638222073745265663A646F63756D656E744944
3D22786D702E6469643A4238464231434643353046353131453639383846454531364331343335353638222F3E203C2F7264663A4465736372697074696F6E3E
203C2F7264663A5244463E203C2F783A786D706D6574613E203C3F787061636B657420656E643D2272223F3E01FFFEFDFCFBFAF9F8F7F6F5F4F3F2F1F0EFEEED
ECEBEAE9E8E7E6E5E4E3E2E1E0DFDEDDDCDBDAD9D8D7D6D5D4D3D2D1D0CFCECDCCCBCAC9C8C7C6C5C4C3C2C1C0BFBEBDBCBBBAB9B8B7B6B5B4B3B2B1B0AFAEAD
ACABAAA9A8A7A6A5A4A3A2A1A09F9E9D9C9B9A999897969594939291908F8E8D8C8B8A898887868584838281807F7E7D7C7B7A797877767574737271706F6E6D
6C6B6A696867666564636261605F5E5D5C5B5A595857565554535251504F4E4D4C4B4A494847464544434241403F3E3D3C3B3A393837363534333231302F2E2D
2C2B2A292827262524232221201F1E1D1C1B1A191817161514131211100F0E0D0C0B0A090807060504030201000021F904010000FF002C00000000AC00280040
08FF00FF091C48B020B379D004522A6248A018324E0A4A9C48B1A2C58B18336ADCC8B1634126060A222A5210D78B7F42B48CF86780D13F452B56DC2308660B1A
8F3873EADCC9F3221A13975CA22818F15F3C163725AA99F7AF9D29819504BED136C7920BAA1983F5DA7A41A2A7ADBD92099C02B6ABC562605B4CBCB175873089
1CC66C2536310B582218716CBD22F118D80D025B800D54518AAFC3BEFEC9C154E21FA85321FE09680742103330033F5478752D07A27F6218FE4B208925B0C38D
316AE54AF00A586504BF80E59177EB011F050718DB5A6062DCB913056F6D56BB17DF813FC0F6CE68612B0E89AB0E2159F6CFC5B035FFF2C11038414D411DA9FE
4DFF50B2ED9F3C74D87BAA5FCFBE3DC6EDFF523DB252908C20818872094C28FE910C81F0B927E080046E149126220CF4844032D8F20F043248B0C62621AC0288
090B0021CB26DE7442DD07068893C03F1260B6110F60A5A8A203059DA1E28BC108B40758614CC4C05666E066CD8B3CF692C23F2A20D3235804ED30E45641A840
101447F6B2810B88CD548B2604D9420735765884821152802087214A48F1CF0C3354871813AA35D90B5D039105D66E2A6630105A5BA925115BBDB805975C6BD6
D5240304E9756417044874420C8DBC58E34084C404CA68874901C46102E9E04B1AF200B3C502480C24051C0B0EF2C21CFF001153541A1583830555FC20D11738
54FF81CCA20285818319299A7180055D1C2311A246F6620C0DD69845513319586001601309D3040DB882A52B0E4D105480B2D84CD485B2652819CD06D664B043
B46654D184331829F1C20B3A6C84C5BA0B1628EFBCF45AE4192598D5130E75124160C576CC74C08589F5166CB07B4668A1059A03B5520433142DA1D23F913420
50210A0372F0C61C6F14D30A49FC330F094909D4C12303C963F122282492042709E8F14F1CC000B3C03F1FC7C1910F294CF1431B175C00C5146F5594020F4107
CD831FDCE036500A03FC52A844C20C3080AFFF54FDCBD65C77FDCBD5B97991B4323C7C41C4D40325E3CC0F3C4011F40F5857E4C31ECA5CE0453667575A33300F
FCFF438A16A7FCA384833984239025AF945081075B3CF248BBC008F0CF2BC04432C9611EC8B1F71B59BD46D0090E8055C640CE8055CD4574F662674178EA5990
307CB228915D5B4D51DC19057991095862FD437B2F4DF42E1001DC0473C235E5F8C2C23FD3AC00CC3F146821260C109459D104E7303A821C36D40C4A25BCF862
829817ADD68BAB04F1C0A79C638145430DF0C76FEE9C69ADD556D104FDD6E7EC60E1103FFCCFC0C1E90622A86A1184081900CB8F0412081559801803904824B6
D30760BC6219A25801273E41827FD483151541C2CD14F00F3048E01F80E8833EA2A2084E68C47C6108C60F9421A81DA0AD7D5BA18D45DC00962CD8AF17B7D913
70FFF8B79513142708C1F0030F6EB41569644418AED94A17FE81862498603B97388C0E9EF006407CC031AFE8861A40210A1B98201FCB10013FBC539023E04120
1E900526C857BEB214E477B422C001C0B2031AF8F18F1658E03FA221A8AD58E01942024B1028A23F3615644660C9C41FFFB84802EEA520C9008B0506D28C371D
40922A2A06A386310C8B8520117A00C0CD4A050C4C304F17FFB0070698E10453C0E11F4E6007C1FEA10B5296AC63C00CE64000308835F04B208028042C03F082
71FC83164500C03F62118082CC0209E9089030B7C94D8940A2085410083C76410D8160A0088BE8A63AD759117314A1070CA2800604B28B22C8819DF8ECA6BAD8
E5FF2E78E5F39FF45A050990309481E4000B09710749FEB12E127D437204B103093A4047805A543D8040820926F00F2A9070224E100247FF3187217C62182B28
930D0A218A8BBA7427DA20653C08028378B9830BFF90410704228059E00C1836F8C722BA71212008641AA40CEA4B979A9177C42424E1780104FEC18A700A6409
FDE044395ED1005F1895258789041A7CD189794E62057DB8A74606B03B1EEDE00A312A880F0A30A41D2CF01770F2C4441AD88B4C140A4F4D3A8011FF31801AF4
C818A31B4823A2A522636480598F2C45B0DE4483464490117C70C43D2560844848C4158320D11BF270843C2C62028918050C34A181773426018791D90C0E0184
91FFD6712B34B843108290813DCE66203E88D618CA10842E18B70BC4ED5DEA564790D6E1260B387806FC7000A74CC40F0765784B72DA52DCE322D7800211D401
32D0DDE68005BC1C48D118C85B065935D152BE0046270432832FDA0203FF00003EFEE188A01044076A784A0510301A6DFC63199818D10710738BCE6DC50B12A1
2B10A7269B07A3AE7E77BA9F447C10BBE0808503B793C805ECF80FC062C4061189C33002A70A9F82E03F49B01845C26987D0B260181F88477C2BF08F1044C6C1
BD8082449818C47FB8A917C6A2C8727FE8BAFCF1C99104F91D5E2E2228DC15A4C24816C82F5214840B28A9208E404C3C74B080A87C62AA5488052DDE58111454
13FF1556150800EE19BEC3ACD222E6ABC115AE708670A50836381C9219E8572726E36F208DF4D3912A19DEAD20C31A67D87310186B8D8238C0B7292A405C25C0
8751343811A7990029D4F1A87F80C07015F9C4119E30847F20E00528E8DE0A7AA0892494E30FDAA488F97844035112E4C82D2082D70600628194AED012E16B93
11FD6445F782072918B6D31A3D24C852E4170E48E456DAF08F255CE201069043022C06068E6AA234F5E801C424428812A882221C65411F8050D0DBF622AEFF38
762F12DB26B038D122278013A0241204DCFAA6D944ECC52F8A03DE7FD0E0C31AA982219F508E9AB9000C9D38CC35FE008C49FC430BF100831372A104496CE10F
8EFF7805479911CE1C70611F7350D81016B1B711A589359C8CD60E083280C134E3CB14A906589E813E027841DBDC16E2FE0AF215AEDC7022823ACE400ABE956C
10441A17F8420A4E50A81430B11756864A3E8690000F74639E0978C53A3E90047FA461A35B80410590A0861EE8801A6C280F0CC223905AB47A23DBED450C2462
DE5EEC6120616892D5119DC01E3502E805A90358062E9132348920BE65F440B001966CFDE3044D1AFC403E26B951D4ACD57AA8C402F8100A1488491E7C87C12E
9440105750400773C899809EFE0F0E70ED6A1C88864584418401E46D3D043846D4B6C681C17A84F73E4886D5E226111BACE21FED12481F56700881A01805C3D0
C2763FEC000E6936AC082010C8DF6BE142A6BA3F2309D3021DFE31845AA0446111219540E2658A081404635AA031EF37801BA109A8C06603510FA8305507754C
FF9003B880800438811A010B51000F9821065C506F04D1035C20266A10051F458124C8116A002A02410E11900302410F5355823038100101003B}}
\par\par \b  \highlight22\uc2 African Markets \highlight\uc2  -  \highlight22\uc2 Factors to watch \highlight\uc2  on January 19\b0\par\par\uc2 473 \uc2 words\par \uc2 19 January 2026\par 00:17\par \uc2 Reuters News\par \uc2 LBA\par \uc2 English\par \uc2 Copyright 2026 Thomson Reuters. All Rights Reserved. \par \par \uc2 \f2 \par        NAIROBI, Jan 19 (Reuters) - The following debt and\par currency market moves and political events may affect African\par markets on Monday.\par     - - - - -\par  GLOBAL MARKETS\par  Stock markets slid in Asia on Monday after U.S. President\par  \f28 \uc2 \f2 Donald Trump\f28 \uc2 \f2  threatened extra tariffs on eight European\par  nations until the U.S. is allowed to buy Greenland, pushing\par  the dollar down against the safe-haven yen and Swiss\par  franc.           \par  \par  WORLD OIL PRICES\par  Oil prices were little changed on Monday, after rising in\par  the previous session, as Iran's deadly crackdown on protests\par  quelled the civil unrest in the country, reducing the chance\par  of a U.S. attack on the major Middle Eastern producer that\par  could disrupt supplies.     \par  \par  EMERGING MARKETS\par  For the top emerging markets news, double click on\par             \par  \par  AFRICA STOCKS\par  For the latest news on South African stocks, click on     \par  \par  SOUTH AFRICA MARKETS\par  The South African rand slipped on Friday as traders awaited\par  an inflation reading due next week for fresh signals on the\par  health of Africa's most industrialised economy and clues\par  into the central bank's rate-cutting path this year.\par  \par  ANGOLA OIL\par  Angolan crude loadings will rise in March, a trader said on\par  Friday, while differentials were steady amid a lack of new\par  offers being made.\par  \par  UGANDA POLITICS\par  Ugandan authorities partially restored internet services\par  late on Saturday after 81-year-old President \f28 \uc2 \f2 Yoweri Museveni\f28 \uc2 \f2 \par  won a seventh term to extend his rule into a fifth decade\par  with a landslide victory rejected by the opposition.\par  \par  GUINEA MINING\par  China, the world's largest iron ore consumer, has received\par  its first shipment of iron ore from the Simandou mine in\par  Guinea in West Africa, in which Beijing has heavily invested\par  to increase supply security.\par  \par  NIGERIA MARKETS\par  Nigeria's markets regulator has sharply raised capital\par  requirements across the securities industry, tripling the\par  minimum for brokers and imposing multi-billion-naira\par  thresholds on underwriters, exchanges and fund managers, a\par  circular showed on Friday.\par  \par  SENEGAL DEBT\par  Senegal raised 154 billion CFA francs ($254 million) in a\par  regional debt auction on Friday, as investors sought higher\par  yields across all maturities, data from regional debt agency\par  UMOA-Titres showed.\par  \par  GAMBIA GENOCIDE\par  Myanmar told the United Nations' top court on Friday that\par  Gambia had not proven its accusation that the Myanmar\par  government had committed genocide against the minority\par  Muslim Rohingya, part of a hearing on the landmark case.\par  \par  NIGERIA HUNGER\par  Thousands of people in Nigeria's strife-torn northeast are\par  facing the risk of catastrophic food shortages for the first\par  time in nearly a decade, as aid cuts deepen malnutrition\par  across the region, the U.N. World Food Programme warned on\par  Friday.\par  \par  \par  \par      For the latest precious metals report click on        \par      For the latest base metals report click on         \par      For the latest crude oil report click on       \par  \par \par  (Compiled by Nairobi Newsroom)\f28 \par \par \uc2 Released: 2026-1-19T06:17:53.000Z \par \par \uc2 Document LBA0000020260119em1j0096n\par }\page {\par\fs20{\*\shppict{\pict\pngblip\picw172\pich40\picscaley100\picscalex100\picwgoal2580\pichgoal600
47
4946383961AC002800F7FF00FFE8CDFFDAACFFA23CE6E6E6FBFBFB959595FFD6AD6D6D6DFFC98DFFB972FFC985FFC991A5A5A5FFD1A1B5B5B5FF850AFFDDB5FF
9308FFE4C6FFF4E8FFA535FFBE7C7A7A7ACBCBCBFF9B24858585FFF2E4C1C1C1F2F2F2FFAA45FFCE9CFFE3C5FFE3BEFFE6CDFFEBD4FF921AFF9316FFAD59FF9D
39F4F4F4FFF0E0EBEBEBFDFDFDFF8300FFA54AB8B8B8FF962AFF8A00FFFCF9C5C5C5FFCD90FFC17F777777828282FFDBB5AAAAAA7E7E7EFFF0DEFFFAF5717171
D4D4D4FFD6A5F8F8F8D7D7D7FFA1418E8E8EFFDFBCFFF8F0ECECECFF8E00FFB056FFC687FF9929FF9A32FFD096FFD6AAFFCE9BA0A0A0FFFDFBFFFBF7CDCDCDFF
B559FFF9F2DFDFDFFFD9A77C7C7CFFCC8D9B9B9BFFCA89BCBCBCFF8700FFCC96FFC1748B8B8BD1D1D1DCDCDCFFFEFDB2B2B2FFE4C26B6B6BFFD59F8888886868
689C9C9CFFE0C0FF9934FFF3E6FFA542FFB04AD2D2D2E4E4E4FFB469FFDEB2FFB05DFFECD8FFF7EEFFD19BF0F0F0FFD4A18A8A8AFFC27AFFA94EFFC488E0E0E0
FF8E1AFF880DD9D9D9FFA850FFE8D0ACACACFFC071FF9F2EFFB86DFF9721FFEFDBFF8D15FFAE48FFA244FFE4C8FFECD6FFD8B0929292FF9226FFBA68FFB965FF
DCB8FFBF76FFB162FFBE6CFFE5CAFFB66DFF9021FFAB55737373FFF1E2FFEEDDFFE9D2FF8205BEBEBEFFE6CAFFDEBBFFC282FFAE56FF8912FFB6639E9E9EFFB6
5BFF9D36FFB050FFF6ECFFEBD3FFE2C2FFE3C0FFE1BAFFBC6CFF7F00FFF6EAFFE7C8FF9426FFDBB2FFDBB0FFD9B2FFBC66FFB265FFAF4FFFA83FFFA644FF9818
FF8A15666666FF8000E8E8E8FF8100DADADAF7F7F7FF8400B1B1B1E3E3E3676767EEEEEE747474EFEFEFCECECEFFF5EAFFEED9F6F6F6E2E2E2818181FFF8EFFE
FEFEC8C8C8FF9D33FFF2E1BBBBBB989898FFDDBAAFAFAFDBDBDBFFAE5CFFF6E9E9E9E9FFD2A4FF8F20FF8B07FF8D06FFCC8CFFBB76FFBE71FFC579FF8408FFB8
5EFFC06EFF8D0EFFB25BFF8402FFAF60FFF2E3FFEDDAFFB454FFC386FFC882FFC88FFFCF9FFFD49BFFECD3FFEACFFFDEB9FFCA94FFB455FFE1C1FF8908FFFAF3
FF8F08FF8C11FFC388FFFFFF21FF0B584D502044617461584D503C3F787061636B657420626567696E3D22EFBBBF222069643D2257354D304D7043656869487A
7265537A4E54637A6B633964223F3E203C783A786D706D65746120786D6C6E733A783D2261646F62653A6E733A6D6574612F2220783A786D70746B3D2241646F
626520584D5020436F726520352E362D633131312037392E3135383332352C20323031352F30392F31302D30313A31303A32302020202020202020223E203C72
64663A52444620786D6C6E733A7264663D22687474703A2F2F7777772E77332E6F72672F313939392F30322F32322D7264662D73796E7461782D6E7323223E20
3C7264663A4465736372697074696F6E207264663A61626F75743D222220786D6C6E733A786D703D22687474703A2F2F6E732E61646F62652E636F6D2F786170
2F312E302F2220786D6C6E733A786D704D4D3D22687474703A2F2F6E732E61646F62652E636F6D2F7861702F312E302F6D6D2F2220786D6C6E733A7374526566
3D22687474703A2F2F6E732E61646F62652E636F6D2F7861702F312E302F73547970652F5265736F75726365526566232220786D703A43726561746F72546F6F
6C3D2241646F62652050686F746F73686F70204343203230313520284D6163696E746F7368292220786D704D4D3A496E7374616E636549443D22786D702E6969
643A42384642314346443530463531314536393838464545313643313433353536382220786D704D4D3A446F63756D656E7449443D22786D702E6469643A4238
464231434645353046353131453639383846454531364331343335353638223E203C786D704D4D3A4465726976656446726F6D2073745265663A696E7374616E
636549443D22786D702E6969643A4238464231434642353046353131453639383846454531364331343335353638222073745265663A646F63756D656E744944
3D22786D702E6469643A4238464231434643353046353131453639383846454531364331343335353638222F3E203C2F7264663A4465736372697074696F6E3E
203C2F7264663A5244463E203C2F783A786D706D6574613E203C3F787061636B657420656E643D2272223F3E01FFFEFDFCFBFAF9F8F7F6F5F4F3F2F1F0EFEEED
ECEBEAE9E8E7E6E5E4E3E2E1E0DFDEDDDCDBDAD9D8D7D6D5D4D3D2D1D0CFCECDCCCBCAC9C8C7C6C5C4C3C2C1C0BFBEBDBCBBBAB9B8B7B6B5B4B3B2B1B0AFAEAD
ACABAAA9A8A7A6A5A4A3A2A1A09F9E9D9C9B9A999897969594939291908F8E8D8C8B8A898887868584838281807F7E7D7C7B7A797877767574737271706F6E6D
6C6B6A696867666564636261605F5E5D5C5B5A595857565554535251504F4E4D4C4B4A494847464544434241403F3E3D3C3B3A393837363534333231302F2E2D
2C2B2A292827262524232221201F1E1D1C1B1A191817161514131211100F0E0D0C0B0A090807060504030201000021F904010000FF002C00000000AC00280040
08FF00FF091C48B020B379D004522A6248A018324E0A4A9C48B1A2C58B18336ADCC8B1634126060A222A5210D78B7F42B48CF86780D13F452B56DC2308660B1A
8F3873EADCC9F3221A13975CA22818F15F3C163725AA99F7AF9D29819504BED136C7920BAA1983F5DA7A41A2A7ADBD92099C02B6ABC562605B4CBCB175873089
1CC66C2536310B582218716CBD22F118D80D025B800D54518AAFC3BEFEC9C154E21FA85321FE09680742103330033F5478752D07A27F6218FE4B208925B0C38D
316AE54AF00A586504BF80E59177EB011F050718DB5A6062DCB913056F6D56BB17DF813FC0F6CE68612B0E89AB0E2159F6CFC5B035FFF2C11038414D411DA9FE
4DFF50B2ED9F3C74D87BAA5FCFBE3DC6EDFF523DB252908C20818872094C28FE910C81F0B927E080046E149126220CF4844032D8F20F043248B0C62621AC0288
090B0021CB26DE7442DD07068893C03F1260B6110F60A5A8A203059DA1E28BC108B40758614CC4C05666E066CD8B3CF692C23F2A20D3235804ED30E45641A840
101447F6B2810B88CD548B2604D9420735765884821152802087214A48F1CF0C3354871813AA35D90B5D039105D66E2A6630105A5BA925115BBDB805975C6BD6
D5240304E9756417044874420C8DBC58E34084C404CA68874901C46102E9E04B1AF200B3C502480C24051C0B0EF2C21CFF001153541A1583830555FC20D11738
54FF81CCA20285818319299A7180055D1C2311A246F6620C0DD69845513319586001601309D3040DB882A52B0E4D105480B2D84CD485B2652819CD06D664B043
B46654D184331829F1C20B3A6C84C5BA0B1628EFBCF45AE4192598D5130E75124160C576CC74C08589F5166CB07B4668A1059A03B5520433142DA1D23F913420
50210A0372F0C61C6F14D30A49FC330F094909D4C12303C963F122282492042709E8F14F1CC000B3C03F1FC7C1910F294CF1431B175C00C5146F5594020F4107
CD831FDCE036500A03FC52A844C20C3080AFFF54FDCBD65C77FDCBD5B97991B4323C7C41C4D40325E3CC0F3C4011F40F5857E4C31ECA5CE0453667575A33300F
FCFF438A16A7FCA384833984239025AF945081075B3CF248BBC008F0CF2BC04432C9611EC8B1F71B59BD46D0090E8055C640CE8055CD4574F662674178EA5990
307CB228915D5B4D51DC19057991095862FD437B2F4DF42E1001DC0473C235E5F8C2C23FD3AC00CC3F146821260C109459D104E7303A821C36D40C4A25BCF862
829817ADD68BAB04F1C0A79C638145430DF0C76FEE9C69ADD556D104FDD6E7EC60E1103FFCCFC0C1E90622A86A1184081900CB8F0412081559801803904824B6
D30760BC6219A25801273E41827FD483151541C2CD14F00F3048E01F80E8833EA2A2084E68C47C6108C60F9421A81DA0AD7D5BA18D45DC00962CD8AF17B7D913
70FFF8B79513142708C1F0030F6EB41569644418AED94A17FE81862498603B97388C0E9EF006407CC031AFE8861A40210A1B98201FCB10013FBC539023E04120
1E900526C857BEB214E477B422C001C0B2031AF8F18F1658E03FA221A8AD58E01942024B1028A23F3615644660C9C41FFFB84802EEA520C9008B0506D28C371D
40922A2A06A386310C8B8520117A00C0CD4A050C4C304F17FFB0070698E10453C0E11F4E6007C1FEA10B5296AC63C00CE64000308835F04B208028042C03F082
71FC83164500C03F62118082CC0209E9089030B7C94D8940A2085410083C76410D8160A0088BE8A63AD759117314A1070CA2800604B28B22C8819DF8ECA6BAD8
E5FF2E78E5F39FF45A050990309481E4000B09710749FEB12E127D437204B103093A4047805A543D8040820926F00F2A9070224E100247FF3187217C62182B28
930D0A218A8BBA7427DA20653C08028378B9830BFF90410704228059E00C1836F8C722BA71212008641AA40CEA4B979A9177C42424E1780104FEC18A700A6409
FDE044395ED1005F1895258789041A7CD189794E62057DB8A74606B03B1EEDE00A312A880F0A30A41D2CF01770F2C4441AD88B4C140A4F4D3A8011FF31801AF4
C818A31B4823A2A522636480598F2C45B0DE4483464490117C70C43D2560844848C4158320D11BF270843C2C62028918050C34A181773426018791D90C0E0184
91FFD6712B34B843108290813DCE66203E88D618CA10842E18B70BC4ED5DEA564790D6E1260B387806FC7000A74CC40F0765784B72DA52DCE322D7800211D401
32D0DDE68005BC1C48D118C85B065935D152BE0046270432832FDA0203FF00003EFEE188A01044076A784A0510301A6DFC63199818D10710738BCE6DC50B12A1
2B10A7269B07A3AE7E77BA9F447C10BBE0808503B793C805ECF80FC062C4061189C33002A70A9F82E03F49B01845C26987D0B260181F88477C2BF08F1044C6C1
BD8082449818C47FB8A917C6A2C8727FE8BAFCF1C99104F91D5E2E2228DC15A4C24816C82F5214840B28A9208E404C3C74B080A87C62AA5488052DDE58111454
13FF1556150800EE19BEC3ACD222E6ABC115AE708670A50836381C9219E8572726E36F208DF4D3912A19DEAD20C31A67D87310186B8D8238C0B7292A405C25C0
8751343811A7990029D4F1A87F80C07015F9C4119E30847F20E00528E8DE0A7AA0892494E30FDAA488F97844035112E4C82D2082D70600628194AED012E16B93
11FD6445F782072918B6D31A3D24C852E4170E48E456DAF08F255CE201069043022C06068E6AA234F5E801C424428812A882221C65411F8050D0DBF622AEFF38
762F12DB26B038D122278013A0241204DCFAA6D944ECC52F8A03DE7FD0E0C31AA982219F508E9AB9000C9D38CC35FE008C49FC430BF100831372A104496CE10F
8EFF7805479911CE1C70611F7350D81016B1B711A589359C8CD60E083280C134E3CB14A906589E813E027841DBDC16E2FE0AF215AEDC7022823ACE400ABE956C
10441A17F8420A4E50A81430B11756864A3E8690000F74639E0978C53A3E90047FA461A35B80410590A0861EE8801A6C280F0CC223905AB47A23DBED450C2462
DE5EEC6120616892D5119DC01E3502E805A90358062E9132348920BE65F440B001966CFDE3044D1AFC403E26B951D4ACD57AA8C402F8100A1488491E7C87C12E
9440105750400773C899809EFE0F0E70ED6A1C88864584418401E46D3D043846D4B6C681C17A84F73E4886D5E226111BACE21FED12481F56700881A01805C3D0
C2763FEC000E6936AC082010C8DF6BE142A6BA3F2309D3021DFE31845AA0446111219540E2658A081404635AA031EF37801BA109A8C06603510FA8305507754C
FF9003B880800438811A010B51000F9821065C506F04D1035C20266A10051F458124C8116A002A02410E11900302410F5355823038100101003B}}
\par\par \b  \highlight22\uc2 African Markets \highlight\uc2  -  \highlight22\uc2 Factors to watch \highlight\uc2  on January 16\b0\par\par\uc2 446 \uc2 words\par \uc2 16 January 2026\par 00:09\par \uc2 Reuters News\par \uc2 LBA\par \uc2 English\par \uc2 Copyright 2026 Thomson Reuters. All Rights Reserved. \par \par \uc2 \f2 \par        NAIROBI, Jan 16 (Reuters) - The following debt and\par currency market moves and political events may affect African\par markets on Friday.\par               - - - - -\par  GLOBAL MARKETS\par  Asian stocks advanced on Friday as the artificial\par  intelligence boom regained momentum, while the dollar held\par  near a six-week high after upbeat U.S. economic data left\par  traders trimming bets on rate cuts there.           \par              \par  \par  WORLD OIL PRICES\par  Oil prices were flat on Friday with both Brent and U.S. West\par  Texas Intermediate moving only a few cents from their\par  closing prices after the likelihood of a U.S. strike on Iran\par  receded.                   \par  \par  EMERGING MARKETS\par  For the top emerging markets news, double click on\par             \par  \par  AFRICA STOCKS\par  For the latest news on South African stocks, click on     \par  \par  SOUTH AFRICA MARKETS\par  The South African rand was steady on Thursday, after U.S.\par  President \f28 \uc2 \f2 Donald Trump\f28 \uc2 \f2  calmed market anxiety over potential\par  U.S. military action against Iran.            \par  \par  MOZAMBIQUE BOND\par  Mozambique's sole international dollar bond fell on Thursday\par  after President Daniel Chapo told \f28 \uc2 \f2 Bloomberg Television\f28 \uc2 \f2  the\par  country could embark on debt renegotiation once it clinched\par  a new deal with the \f28 \uc2 \f2 International Monetary Fund\f28 \uc2 \f2 .            \par  \par  NIGERIA INFLATION\par  Nigeria's statistics agency reported headline consumer\par  inflation              of 15.15% year on year in December\par  using a new method, saying its previous method would have\par  caused an "artificial spike" in its\par  calculations.            \par  \par  KENYA-CHINA TRADE\par  Kenya has struck a preliminary trade deal with China that\par  would give 98% of its exports duty-free access to the large\par  Chinese market, the Nairobi government said on Thursday,\par  with a full, final agreement in the pipeline.            \par  \par  UGANDA ELECTIONS\par  Ugandan President \f28 \uc2 \f2 Yoweri Museveni\f28 \uc2 \f2  voiced confidence about\par  extending his rule into a fifth decade during a tense\par  national election on Thursday held under an internet\par  blackout following a campaign marred by\par  violence.            \par  \par  GHANA MINING\par  Ghana will scrap long-term mining investment stability\par  agreements and double royalties under sweeping reforms, the\par  regulator in Africa's top gold producer told Reuters, as it\par  seeks to capture more benefits from surging bullion\par  prices.                    \par  \par  ETHIOPIA-ERITREA RELATIONS\par  Ethiopian police said they had seized thousands of rounds of\par  ammunition sent by neighbouring Eritrea to rebels in the\par  Amhara region, escalating a feud between the longstanding\par  foes that experts have said could lead to renewed\par  conflict.            \par  \par  NIGERIA ECONOMY\par  Nigeria has entered a phase of economic consolidation after\par  two years of reforms that helped steady inflation, stabilise\par  the currency and lift investor confidence, Finance Minister\par  Wale Edun said on Thursday.            \par  \par  \par  \par      For the latest precious metals report click on        \par      For the latest base metals report click on         \par      For the latest crude oil report click on       \par  \par \par  (Compiled by Nairobi Newsroom)\f28 \par \par \uc2 Released: 2026-1-16T06:09:26.000Z \par \par \uc2 Document LBA0000020260116em1g008kd\par }\page {\par\fs20{\*\shppict{\pict\pngblip\picw172\pich40\picscaley100\picscalex100\picwgoal2580\pichgoal600
47
4946383961AC002800F7FF00FFE8CDFFDAACFFA23CE6E6E6FBFBFB959595FFD6AD6D6D6DFFC98DFFB972FFC985FFC991A5A5A5FFD1A1B5B5B5FF850AFFDDB5FF
9308FFE4C6FFF4E8FFA535FFBE7C7A7A7ACBCBCBFF9B24858585FFF2E4C1C1C1F2F2F2FFAA45FFCE9CFFE3C5FFE3BEFFE6CDFFEBD4FF921AFF9316FFAD59FF9D
39F4F4F4FFF0E0EBEBEBFDFDFDFF8300FFA54AB8B8B8FF962AFF8A00FFFCF9C5C5C5FFCD90FFC17F777777828282FFDBB5AAAAAA7E7E7EFFF0DEFFFAF5717171
D4D4D4FFD6A5F8F8F8D7D7D7FFA1418E8E8EFFDFBCFFF8F0ECECECFF8E00FFB056FFC687FF9929FF9A32FFD096FFD6AAFFCE9BA0A0A0FFFDFBFFFBF7CDCDCDFF
B559FFF9F2DFDFDFFFD9A77C7C7CFFCC8D9B9B9BFFCA89BCBCBCFF8700FFCC96FFC1748B8B8BD1D1D1DCDCDCFFFEFDB2B2B2FFE4C26B6B6BFFD59F8888886868
689C9C9CFFE0C0FF9934FFF3E6FFA542FFB04AD2D2D2E4E4E4FFB469FFDEB2FFB05DFFECD8FFF7EEFFD19BF0F0F0FFD4A18A8A8AFFC27AFFA94EFFC488E0E0E0
FF8E1AFF880DD9D9D9FFA850FFE8D0ACACACFFC071FF9F2EFFB86DFF9721FFEFDBFF8D15FFAE48FFA244FFE4C8FFECD6FFD8B0929292FF9226FFBA68FFB965FF
DCB8FFBF76FFB162FFBE6CFFE5CAFFB66DFF9021FFAB55737373FFF1E2FFEEDDFFE9D2FF8205BEBEBEFFE6CAFFDEBBFFC282FFAE56FF8912FFB6639E9E9EFFB6
5BFF9D36FFB050FFF6ECFFEBD3FFE2C2FFE3C0FFE1BAFFBC6CFF7F00FFF6EAFFE7C8FF9426FFDBB2FFDBB0FFD9B2FFBC66FFB265FFAF4FFFA83FFFA644FF9818
FF8A15666666FF8000E8E8E8FF8100DADADAF7F7F7FF8400B1B1B1E3E3E3676767EEEEEE747474EFEFEFCECECEFFF5EAFFEED9F6F6F6E2E2E2818181FFF8EFFE
FEFEC8C8C8FF9D33FFF2E1BBBBBB989898FFDDBAAFAFAFDBDBDBFFAE5CFFF6E9E9E9E9FFD2A4FF8F20FF8B07FF8D06FFCC8CFFBB76FFBE71FFC579FF8408FFB8
5EFFC06EFF8D0EFFB25BFF8402FFAF60FFF2E3FFEDDAFFB454FFC386FFC882FFC88FFFCF9FFFD49BFFECD3FFEACFFFDEB9FFCA94FFB455FFE1C1FF8908FFFAF3
FF8F08FF8C11FFC388FFFFFF21FF0B584D502044617461584D503C3F787061636B657420626567696E3D22EFBBBF222069643D2257354D304D7043656869487A
7265537A4E54637A6B633964223F3E203C783A786D706D65746120786D6C6E733A783D2261646F62653A6E733A6D6574612F2220783A786D70746B3D2241646F
626520584D5020436F726520352E362D633131312037392E3135383332352C20323031352F30392F31302D30313A31303A32302020202020202020223E203C72
64663A52444620786D6C6E733A7264663D22687474703A2F2F7777772E77332E6F72672F313939392F30322F32322D7264662D73796E7461782D6E7323223E20
3C7264663A4465736372697074696F6E207264663A61626F75743D222220786D6C6E733A786D703D22687474703A2F2F6E732E61646F62652E636F6D2F786170
2F312E302F2220786D6C6E733A786D704D4D3D22687474703A2F2F6E732E61646F62652E636F6D2F7861702F312E302F6D6D2F2220786D6C6E733A7374526566
3D22687474703A2F2F6E732E61646F62652E636F6D2F7861702F312E302F73547970652F5265736F75726365526566232220786D703A43726561746F72546F6F
6C3D2241646F62652050686F746F73686F70204343203230313520284D6163696E746F7368292220786D704D4D3A496E7374616E636549443D22786D702E6969
643A42384642314346443530463531314536393838464545313643313433353536382220786D704D4D3A446F63756D656E7449443D22786D702E6469643A4238
464231434645353046353131453639383846454531364331343335353638223E203C786D704D4D3A4465726976656446726F6D2073745265663A696E7374616E
636549443D22786D702E6969643A4238464231434642353046353131453639383846454531364331343335353638222073745265663A646F63756D656E744944
3D22786D702E6469643A4238464231434643353046353131453639383846454531364331343335353638222F3E203C2F7264663A4465736372697074696F6E3E
203C2F7264663A5244463E203C2F783A786D706D6574613E203C3F787061636B657420656E643D2272223F3E01FFFEFDFCFBFAF9F8F7F6F5F4F3F2F1F0EFEEED
ECEBEAE9E8E7E6E5E4E3E2E1E0DFDEDDDCDBDAD9D8D7D6D5D4D3D2D1D0CFCECDCCCBCAC9C8C7C6C5C4C3C2C1C0BFBEBDBCBBBAB9B8B7B6B5B4B3B2B1B0AFAEAD
ACABAAA9A8A7A6A5A4A3A2A1A09F9E9D9C9B9A999897969594939291908F8E8D8C8B8A898887868584838281807F7E7D7C7B7A797877767574737271706F6E6D
6C6B6A696867666564636261605F5E5D5C5B5A595857565554535251504F4E4D4C4B4A494847464544434241403F3E3D3C3B3A393837363534333231302F2E2D
2C2B2A292827262524232221201F1E1D1C1B1A191817161514131211100F0E0D0C0B0A090807060504030201000021F904010000FF002C00000000AC00280040
08FF00FF091C48B020B379D004522A6248A018324E0A4A9C48B1A2C58B18336ADCC8B1634126060A222A5210D78B7F42B48CF86780D13F452B56DC2308660B1A
8F3873EADCC9F3221A13975CA22818F15F3C163725AA99F7AF9D29819504BED136C7920BAA1983F5DA7A41A2A7ADBD92099C02B6ABC562605B4CBCB175873089
1CC66C2536310B582218716CBD22F118D80D025B800D54518AAFC3BEFEC9C154E21FA85321FE09680742103330033F5478752D07A27F6218FE4B208925B0C38D
316AE54AF00A586504BF80E59177EB011F050718DB5A6062DCB913056F6D56BB17DF813FC0F6CE68612B0E89AB0E2159F6CFC5B035FFF2C11038414D411DA9FE
4DFF50B2ED9F3C74D87BAA5FCFBE3DC6EDFF523DB252908C20818872094C28FE910C81F0B927E080046E149126220CF4844032D8F20F043248B0C62621AC0288
090B0021CB26DE7442DD07068893C03F1260B6110F60A5A8A203059DA1E28BC108B40758614CC4C05666E066CD8B3CF692C23F2A20D3235804ED30E45641A840
101447F6B2810B88CD548B2604D9420735765884821152802087214A48F1CF0C3354871813AA35D90B5D039105D66E2A6630105A5BA925115BBDB805975C6BD6
D5240304E9756417044874420C8DBC58E34084C404CA68874901C46102E9E04B1AF200B3C502480C24051C0B0EF2C21CFF001153541A1583830555FC20D11738
54FF81CCA20285818319299A7180055D1C2311A246F6620C0DD69845513319586001601309D3040DB882A52B0E4D105480B2D84CD485B2652819CD06D664B043
B46654D184331829F1C20B3A6C84C5BA0B1628EFBCF45AE4192598D5130E75124160C576CC74C08589F5166CB07B4668A1059A03B5520433142DA1D23F913420
50210A0372F0C61C6F14D30A49FC330F094909D4C12303C963F122282492042709E8F14F1CC000B3C03F1FC7C1910F294CF1431B175C00C5146F5594020F4107
CD831FDCE036500A03FC52A844C20C3080AFFF54FDCBD65C77FDCBD5B97991B4323C7C41C4D40325E3CC0F3C4011F40F5857E4C31ECA5CE0453667575A33300F
FCFF438A16A7FCA384833984239025AF945081075B3CF248BBC008F0CF2BC04432C9611EC8B1F71B59BD46D0090E8055C640CE8055CD4574F662674178EA5990
307CB228915D5B4D51DC19057991095862FD437B2F4DF42E1001DC0473C235E5F8C2C23FD3AC00CC3F146821260C109459D104E7303A821C36D40C4A25BCF862
829817ADD68BAB04F1C0A79C638145430DF0C76FEE9C69ADD556D104FDD6E7EC60E1103FFCCFC0C1E90622A86A1184081900CB8F0412081559801803904824B6
D30760BC6219A25801273E41827FD483151541C2CD14F00F3048E01F80E8833EA2A2084E68C47C6108C60F9421A81DA0AD7D5BA18D45DC00962CD8AF17B7D913
70FFF8B79513142708C1F0030F6EB41569644418AED94A17FE81862498603B97388C0E9EF006407CC031AFE8861A40210A1B98201FCB10013FBC539023E04120
1E900526C857BEB214E477B422C001C0B2031AF8F18F1658E03FA221A8AD58E01942024B1028A23F3615644660C9C41FFFB84802EEA520C9008B0506D28C371D
40922A2A06A386310C8B8520117A00C0CD4A050C4C304F17FFB0070698E10453C0E11F4E6007C1FEA10B5296AC63C00CE64000308835F04B208028042C03F082
71FC83164500C03F62118082CC0209E9089030B7C94D8940A2085410083C76410D8160A0088BE8A63AD759117314A1070CA2800604B28B22C8819DF8ECA6BAD8
E5FF2E78E5F39FF45A050990309481E4000B09710749FEB12E127D437204B103093A4047805A543D8040820926F00F2A9070224E100247FF3187217C62182B28
930D0A218A8BBA7427DA20653C08028378B9830BFF90410704228059E00C1836F8C722BA71212008641AA40CEA4B979A9177C42424E1780104FEC18A700A6409
FDE044395ED1005F1895258789041A7CD189794E62057DB8A74606B03B1EEDE00A312A880F0A30A41D2CF01770F2C4441AD88B4C140A4F4D3A8011FF31801AF4
C818A31B4823A2A522636480598F2C45B0DE4483464490117C70C43D2560844848C4158320D11BF270843C2C62028918050C34A181773426018791D90C0E0184
91FFD6712B34B843108290813DCE66203E88D618CA10842E18B70BC4ED5DEA564790D6E1260B387806FC7000A74CC40F0765784B72DA52DCE322D7800211D401
32D0DDE68005BC1C48D118C85B065935D152BE0046270432832FDA0203FF00003EFEE188A01044076A784A0510301A6DFC63199818D10710738BCE6DC50B12A1
2B10A7269B07A3AE7E77BA9F447C10BBE0808503B793C805ECF80FC062C4061189C33002A70A9F82E03F49B01845C26987D0B260181F88477C2BF08F1044C6C1
BD8082449818C47FB8A917C6A2C8727FE8BAFCF1C99104F91D5E2E2228DC15A4C24816C82F5214840B28A9208E404C3C74B080A87C62AA5488052DDE58111454
13FF1556150800EE19BEC3ACD222E6ABC115AE708670A50836381C9219E8572726E36F208DF4D3912A19DEAD20C31A67D87310186B8D8238C0B7292A405C25C0
8751343811A7990029D4F1A87F80C07015F9C4119E30847F20E00528E8DE0A7AA0892494E30FDAA488F97844035112E4C82D2082D70600628194AED012E16B93
11FD6445F782072918B6D31A3D24C852E4170E48E456DAF08F255CE201069043022C06068E6AA234F5E801C424428812A882221C65411F8050D0DBF622AEFF38
762F12DB26B038D122278013A0241204DCFAA6D944ECC52F8A03DE7FD0E0C31AA982219F508E9AB9000C9D38CC35FE008C49FC430BF100831372A104496CE10F
8EFF7805479911CE1C70611F7350D81016B1B711A589359C8CD60E083280C134E3CB14A906589E813E027841DBDC16E2FE0AF215AEDC7022823ACE400ABE956C
10441A17F8420A4E50A81430B11756864A3E8690000F74639E0978C53A3E90047FA461A35B80410590A0861EE8801A6C280F0CC223905AB47A23DBED450C2462
DE5EEC6120616892D5119DC01E3502E805A90358062E9132348920BE65F440B001966CFDE3044D1AFC403E26B951D4ACD57AA8C402F8100A1488491E7C87C12E
9440105750400773C899809EFE0F0E70ED6A1C88864584418401E46D3D043846D4B6C681C17A84F73E4886D5E226111BACE21FED12481F56700881A01805C3D0
C2763FEC000E6936AC082010C8DF6BE142A6BA3F2309D3021DFE31845AA0446111219540E2658A081404635AA031EF37801BA109A8C06603510FA8305507754C
FF9003B880800438811A010B51000F9821065C506F04D1035C20266A10051F458124C8116A002A02410E11900302410F5355823038100101003B}}
\par\par \b  \highlight22\uc2 African Markets \highlight\uc2  -  \highlight22\uc2 Factors to watch \highlight\uc2  on January 15\b0\par\par\uc2 396 \uc2 words\par \uc2 14 January 2026\par 23:58\par \uc2 Reuters News\par \uc2 LBA\par \uc2 English\par \uc2 Copyright 2026 Thomson Reuters. All Rights Reserved. \par \par \uc2 \f2 \par        NAIROBI, Jan 15 (Reuters) - The following debt and currency market moves, and political events may affect African markets on Thursday.\par               - - - - -\par  GLOBAL MARKETS\par  Oil prices retreated from multi-month highs on Thursday,\par  and safe-haven gold eased back from a record peak after\par  U.S. President \f28 \uc2 \f2 Donald Trump\f28 \uc2 \f2  calmed market anxiety about\par  potential U.S. military action against Iran.           \par              \par  WORLD OIL PRICES\par  Oil prices slid more than 2% in early Asian trade on\par  Thursday after U.S. President \f28 \uc2 \f2 Donald Trump\f28 \uc2 \f2  said killings\par  in Iran's crackdown on nationwide protests were stopping,\par  tempering concern over military action against Iran and\par  supply disruption.                   \par  EMERGING MARKETS\par  For the top emerging markets news, double click on\par             \par  AFRICA STOCKS\par  For the latest news on South African stocks, click on\par      \par  SOUTH AFRICA MARKETS\par  The South African rand was lifted by record-high gold\par  prices in early trade on Wednesday, while global markets\par  continued to assess key U.S inflation indicators that\par  could offer more clues on the \f28 \uc2 \f2 Federal Reserve\f28 \uc2 \f2 's interest\par  rate trajectory.             \par  WEST AFRICA OIL\par  The West African crude market saw demand ticking up while\par  traders awaited the results of several tenders, despite\par  the crude grades still facing stiff competition from\par  those in the Gulf.             \par  NIGERIA SECURITY\par  Thousands of people fled their homes in northwestern\par  Nigeria this week after the leader of one of the armed\par  gangs in the region ordered them out in retaliation for a\par  security raid, officials and residents said on\par  Wednesday.            \par  NIGERIA-US RELATIONS\par  Nigeria has hired a U.S. lobbying firm to help maintain\par  U.S. support and counter what it has called\par  misinformation by Christian Evangelical groups and other\par  U.S. lobbyists about what its government is doing to\par  protect Christians in the country.            \par  ANGOLA CENTRAL BANK RATE\par  \f28 \uc2 \f2 Angola's central bank\f28 \uc2 \f2  cut its main interest rate for the\par  third policy meeting in a row on Wednesday, saying it\par  expected an inflation slowdown to continue this\par  year.            \par  UGANDA ELECTIONS\par  Ugandan President \f28 \uc2 \f2 Yoweri Museveni\f28 \uc2 \f2  is seeking to extend\par  his rule into a fifth decade in an election on Thursday,\par  with internet restricted across the country following an\par  often violent campaign.            \par  For the latest precious metals report click on        \par  For the latest base metals report click on         \par  For the latest crude oil report click on       \par      \par \par (Compiled by Nairobi Newsroom; Editing by Harikrishnan Nair)\f28 \par \par \uc2 Released: 2026-1-15T05:58:43.000Z \par \par \uc2 Document LBA0000020260115em1f00a3x\par }\page {\par\fs20{\*\shppict{\pict\pngblip\picw172\pich40\picscaley100\picscalex100\picwgoal2580\pichgoal600
47
4946383961AC002800F7FF00FFE8CDFFDAACFFA23CE6E6E6FBFBFB959595FFD6AD6D6D6DFFC98DFFB972FFC985FFC991A5A5A5FFD1A1B5B5B5FF850AFFDDB5FF
9308FFE4C6FFF4E8FFA535FFBE7C7A7A7ACBCBCBFF9B24858585FFF2E4C1C1C1F2F2F2FFAA45FFCE9CFFE3C5FFE3BEFFE6CDFFEBD4FF921AFF9316FFAD59FF9D
39F4F4F4FFF0E0EBEBEBFDFDFDFF8300FFA54AB8B8B8FF962AFF8A00FFFCF9C5C5C5FFCD90FFC17F777777828282FFDBB5AAAAAA7E7E7EFFF0DEFFFAF5717171
D4D4D4FFD6A5F8F8F8D7D7D7FFA1418E8E8EFFDFBCFFF8F0ECECECFF8E00FFB056FFC687FF9929FF9A32FFD096FFD6AAFFCE9BA0A0A0FFFDFBFFFBF7CDCDCDFF
B559FFF9F2DFDFDFFFD9A77C7C7CFFCC8D9B9B9BFFCA89BCBCBCFF8700FFCC96FFC1748B8B8BD1D1D1DCDCDCFFFEFDB2B2B2FFE4C26B6B6BFFD59F8888886868
689C9C9CFFE0C0FF9934FFF3E6FFA542FFB04AD2D2D2E4E4E4FFB469FFDEB2FFB05DFFECD8FFF7EEFFD19BF0F0F0FFD4A18A8A8AFFC27AFFA94EFFC488E0E0E0
FF8E1AFF880DD9D9D9FFA850FFE8D0ACACACFFC071FF9F2EFFB86DFF9721FFEFDBFF8D15FFAE48FFA244FFE4C8FFECD6FFD8B0929292FF9226FFBA68FFB965FF
DCB8FFBF76FFB162FFBE6CFFE5CAFFB66DFF9021FFAB55737373FFF1E2FFEEDDFFE9D2FF8205BEBEBEFFE6CAFFDEBBFFC282FFAE56FF8912FFB6639E9E9EFFB6
5BFF9D36FFB050FFF6ECFFEBD3FFE2C2FFE3C0FFE1BAFFBC6CFF7F00FFF6EAFFE7C8FF9426FFDBB2FFDBB0FFD9B2FFBC66FFB265FFAF4FFFA83FFFA644FF9818
FF8A15666666FF8000E8E8E8FF8100DADADAF7F7F7FF8400B1B1B1E3E3E3676767EEEEEE747474EFEFEFCECECEFFF5EAFFEED9F6F6F6E2E2E2818181FFF8EFFE
FEFEC8C8C8FF9D33FFF2E1BBBBBB989898FFDDBAAFAFAFDBDBDBFFAE5CFFF6E9E9E9E9FFD2A4FF8F20FF8B07FF8D06FFCC8CFFBB76FFBE71FFC579FF8408FFB8
5EFFC06EFF8D0EFFB25BFF8402FFAF60FFF2E3FFEDDAFFB454FFC386FFC882FFC88FFFCF9FFFD49BFFECD3FFEACFFFDEB9FFCA94FFB455FFE1C1FF8908FFFAF3
FF8F08FF8C11FFC388FFFFFF21FF0B584D502044617461584D503C3F787061636B657420626567696E3D22EFBBBF222069643D2257354D304D7043656869487A
7265537A4E54637A6B633964223F3E203C783A786D706D65746120786D6C6E733A783D2261646F62653A6E733A6D6574612F2220783A786D70746B3D2241646F
626520584D5020436F726520352E362D633131312037392E3135383332352C20323031352F30392F31302D30313A31303A32302020202020202020223E203C72
64663A52444620786D6C6E733A7264663D22687474703A2F2F7777772E77332E6F72672F313939392F30322F32322D7264662D73796E7461782D6E7323223E20
3C7264663A4465736372697074696F6E207264663A61626F75743D222220786D6C6E733A786D703D22687474703A2F2F6E732E61646F62652E636F6D2F786170
2F312E302F2220786D6C6E733A786D704D4D3D22687474703A2F2F6E732E61646F62652E636F6D2F7861702F312E302F6D6D2F2220786D6C6E733A7374526566
3D22687474703A2F2F6E732E61646F62652E636F6D2F7861702F312E302F73547970652F5265736F75726365526566232220786D703A43726561746F72546F6F
6C3D2241646F62652050686F746F73686F70204343203230313520284D6163696E746F7368292220786D704D4D3A496E7374616E636549443D22786D702E6969
643A42384642314346443530463531314536393838464545313643313433353536382220786D704D4D3A446F63756D656E7449443D22786D702E6469643A4238
464231434645353046353131453639383846454531364331343335353638223E203C786D704D4D3A4465726976656446726F6D2073745265663A696E7374616E
636549443D22786D702E6969643A4238464231434642353046353131453639383846454531364331343335353638222073745265663A646F63756D656E744944
3D22786D702E6469643A4238464231434643353046353131453639383846454531364331343335353638222F3E203C2F7264663A4465736372697074696F6E3E
203C2F7264663A5244463E203C2F783A786D706D6574613E203C3F787061636B657420656E643D2272223F3E01FFFEFDFCFBFAF9F8F7F6F5F4F3F2F1F0EFEEED
ECEBEAE9E8E7E6E5E4E3E2E1E0DFDEDDDCDBDAD9D8D7D6D5D4D3D2D1D0CFCECDCCCBCAC9C8C7C6C5C4C3C2C1C0BFBEBDBCBBBAB9B8B7B6B5B4B3B2B1B0AFAEAD
ACABAAA9A8A7A6A5A4A3A2A1A09F9E9D9C9B9A999897969594939291908F8E8D8C8B8A898887868584838281807F7E7D7C7B7A797877767574737271706F6E6D
6C6B6A696867666564636261605F5E5D5C5B5A595857565554535251504F4E4D4C4B4A494847464544434241403F3E3D3C3B3A393837363534333231302F2E2D
2C2B2A292827262524232221201F1E1D1C1B1A191817161514131211100F0E0D0C0B0A090807060504030201000021F904010000FF002C00000000AC00280040
08FF00FF091C48B020B379D004522A6248A018324E0A4A9C48B1A2C58B18336ADCC8B1634126060A222A5210D78B7F42B48CF86780D13F452B56DC2308660B1A
8F3873EADCC9F3221A13975CA22818F15F3C163725AA99F7AF9D29819504BED136C7920BAA1983F5DA7A41A2A7ADBD92099C02B6ABC562605B4CBCB175873089
1CC66C2536310B582218716CBD22F118D80D025B800D54518AAFC3BEFEC9C154E21FA85321FE09680742103330033F5478752D07A27F6218FE4B208925B0C38D
316AE54AF00A586504BF80E59177EB011F050718DB5A6062DCB913056F6D56BB17DF813FC0F6CE68612B0E89AB0E2159F6CFC5B035FFF2C11038414D411DA9FE
4DFF50B2ED9F3C74D87BAA5FCFBE3DC6EDFF523DB252908C20818872094C28FE910C81F0B927E080046E149126220CF4844032D8F20F043248B0C62621AC0288
090B0021CB26DE7442DD07068893C03F1260B6110F60A5A8A203059DA1E28BC108B40758614CC4C05666E066CD8B3CF692C23F2A20D3235804ED30E45641A840
101447F6B2810B88CD548B2604D9420735765884821152802087214A48F1CF0C3354871813AA35D90B5D039105D66E2A6630105A5BA925115BBDB805975C6BD6
D5240304E9756417044874420C8DBC58E34084C404CA68874901C46102E9E04B1AF200B3C502480C24051C0B0EF2C21CFF001153541A1583830555FC20D11738
54FF81CCA20285818319299A7180055D1C2311A246F6620C0DD69845513319586001601309D3040DB882A52B0E4D105480B2D84CD485B2652819CD06D664B043
B46654D184331829F1C20B3A6C84C5BA0B1628EFBCF45AE4192598D5130E75124160C576CC74C08589F5166CB07B4668A1059A03B5520433142DA1D23F913420
50210A0372F0C61C6F14D30A49FC330F094909D4C12303C963F122282492042709E8F14F1CC000B3C03F1FC7C1910F294CF1431B175C00C5146F5594020F4107
CD831FDCE036500A03FC52A844C20C3080AFFF54FDCBD65C77FDCBD5B97991B4323C7C41C4D40325E3CC0F3C4011F40F5857E4C31ECA5CE0453667575A33300F
FCFF438A16A7FCA384833984239025AF945081075B3CF248BBC008F0CF2BC04432C9611EC8B1F71B59BD46D0090E8055C640CE8055CD4574F662674178EA5990
307CB228915D5B4D51DC19057991095862FD437B2F4DF42E1001DC0473C235E5F8C2C23FD3AC00CC3F146821260C109459D104E7303A821C36D40C4A25BCF862
829817ADD68BAB04F1C0A79C638145430DF0C76FEE9C69ADD556D104FDD6E7EC60E1103FFCCFC0C1E90622A86A1184081900CB8F0412081559801803904824B6
D30760BC6219A25801273E41827FD483151541C2CD14F00F3048E01F80E8833EA2A2084E68C47C6108C60F9421A81DA0AD7D5BA18D45DC00962CD8AF17B7D913
70FFF8B79513142708C1F0030F6EB41569644418AED94A17FE81862498603B97388C0E9EF006407CC031AFE8861A40210A1B98201FCB10013FBC539023E04120
1E900526C857BEB214E477B422C001C0B2031AF8F18F1658E03FA221A8AD58E01942024B1028A23F3615644660C9C41FFFB84802EEA520C9008B0506D28C371D
40922A2A06A386310C8B8520117A00C0CD4A050C4C304F17FFB0070698E10453C0E11F4E6007C1FEA10B5296AC63C00CE64000308835F04B208028042C03F082
71FC83164500C03F62118082CC0209E9089030B7C94D8940A2085410083C76410D8160A0088BE8A63AD759117314A1070CA2800604B28B22C8819DF8ECA6BAD8
E5FF2E78E5F39FF45A050990309481E4000B09710749FEB12E127D437204B103093A4047805A543D8040820926F00F2A9070224E100247FF3187217C62182B28
930D0A218A8BBA7427DA20653C08028378B9830BFF90410704228059E00C1836F8C722BA71212008641AA40CEA4B979A9177C42424E1780104FEC18A700A6409
FDE044395ED1005F1895258789041A7CD189794E62057DB8A74606B03B1EEDE00A312A880F0A30A41D2CF01770F2C4441AD88B4C140A4F4D3A8011FF31801AF4
C818A31B4823A2A522636480598F2C45B0DE4483464490117C70C43D2560844848C4158320D11BF270843C2C62028918050C34A181773426018791D90C0E0184
91FFD6712B34B843108290813DCE66203E88D618CA10842E18B70BC4ED5DEA564790D6E1260B387806FC7000A74CC40F0765784B72DA52DCE322D7800211D401
32D0DDE68005BC1C48D118C85B065935D152BE0046270432832FDA0203FF00003EFEE188A01044076A784A0510301A6DFC63199818D10710738BCE6DC50B12A1
2B10A7269B07A3AE7E77BA9F447C10BBE0808503B793C805ECF80FC062C4061189C33002A70A9F82E03F49B01845C26987D0B260181F88477C2BF08F1044C6C1
BD8082449818C47FB8A917C6A2C8727FE8BAFCF1C99104F91D5E2E2228DC15A4C24816C82F5214840B28A9208E404C3C74B080A87C62AA5488052DDE58111454
13FF1556150800EE19BEC3ACD222E6ABC115AE708670A50836381C9219E8572726E36F208DF4D3912A19DEAD20C31A67D87310186B8D8238C0B7292A405C25C0
8751343811A7990029D4F1A87F80C07015F9C4119E30847F20E00528E8DE0A7AA0892494E30FDAA488F97844035112E4C82D2082D70600628194AED012E16B93
11FD6445F782072918B6D31A3D24C852E4170E48E456DAF08F255CE201069043022C06068E6AA234F5E801C424428812A882221C65411F8050D0DBF622AEFF38
762F12DB26B038D122278013A0241204DCFAA6D944ECC52F8A03DE7FD0E0C31AA982219F508E9AB9000C9D38CC35FE008C49FC430BF100831372A104496CE10F
8EFF7805479911CE1C70611F7350D81016B1B711A589359C8CD60E083280C134E3CB14A906589E813E027841DBDC16E2FE0AF215AEDC7022823ACE400ABE956C
10441A17F8420A4E50A81430B11756864A3E8690000F74639E0978C53A3E90047FA461A35B80410590A0861EE8801A6C280F0CC223905AB47A23DBED450C2462
DE5EEC6120616892D5119DC01E3502E805A90358062E9132348920BE65F440B001966CFDE3044D1AFC403E26B951D4ACD57AA8C402F8100A1488491E7C87C12E
9440105750400773C899809EFE0F0E70ED6A1C88864584418401E46D3D043846D4B6C681C17A84F73E4886D5E226111BACE21FED12481F56700881A01805C3D0
C2763FEC000E6936AC082010C8DF6BE142A6BA3F2309D3021DFE31845AA0446111219540E2658A081404635AA031EF37801BA109A8C06603510FA8305507754C
FF9003B880800438811A010B51000F9821065C506F04D1035C20266A10051F458124C8116A002A02410E11900302410F5355823038100101003B}}
\par\par \b  \highlight22\uc2 African Markets \highlight\uc2  -  \highlight22\uc2 Factors to watch \highlight\uc2  on January 14\b0\par\par\uc2 522 \uc2 words\par \uc2 14 January 2026\par 00:30\par \uc2 Reuters News\par \uc2 LBA\par \uc2 English\par \uc2 Copyright 2026 Thomson Reuters. All Rights Reserved. \par \par \uc2 \f2 \par        NAIROBI, Jan 14 (Reuters) - The following debt and\par currency market moves and political events may affect African\par markets on Wednesday.\par               - - - - -\par  EVENTS\par  \f28 \uc2 \f2 Angola's central bank\f28 \uc2 \f2  announces its latest interest rate\par  decision             \par  \par  GLOBAL MARKETS\par  Asian stocks rose on Wednesday, buoyed by Japanese shares,\par  as investors braced for a snap election in Japan that could\par  lead to more fiscal stimulus, while worries about central\par  bank independence and benign U.S. inflation data whipsawed\par  currencies.                        \par  \par  WORLD OIL PRICES\par  Oil prices paused their run of gains on Wednesday, slipping\par  after four days of increases, as Venezuela resumed exports,\par  but fears of Iranian supply disruptions following deadly\par  civil unrest in the major Middle Eastern producer loom over\par  the market.                   \par  \par  EMERGING MARKETS\par  For the top emerging markets news, double click on\par             \par  \par  AFRICA STOCKS\par  For the latest news on South African stocks, click on     \par  \par  SOUTH AFRICA MARKETS\par  The South African rand weakened on Tuesday as investors took\par  profits after the currency benefited from a surge in gold\par  prices during the previous session.            \par  \par  WEST AFRICA OIL\par  As many as 40 cargoes of Nigerian and Angolan crude are\par  looking for buyers, traders said on Tuesday, as high freight\par  rates weigh on the market.            \par  \par  BENIN BOND\par  Benin is planning to issue a benchmark-sized seven-year\par  sukuk and potentially tap its 2038 and 2041\par  dollar-denominated amortizing notes to help finance its\par  budget, a presentation seen by Reuters on Tuesday\par  showed.            \par  \par  NIGERIA INFLATION\par  Nigeria's National Bureau of Statistics (\f28 \uc2 \f2 NBS\f28 \uc2 \f2 ) will change\par  the way it calculates inflation as last year's rebasing\par  measure could make December's year-on-year inflation appear\par  artificially high, the agency said on Tuesday.            \par  \par  MOZAMBIQUE CARGO SHIPMENT\par  Mozambique's Maputo port, the country's largest, handled a\par  record 32 million metric tons of cargo in 2025, driven by\par  expanded capacity and higher freight rail volumes, the\par  harbour's operator said on Tuesday.            \par  \par  SOMALIA-UNITED ARAB EMIRATES RELATIONS\par  Three self-governing regions in Somalia that have close\par  relations with the United Arab Emirates have dismissed a\par  decision this week by the central government to sever ties\par  with the UAE, a long-term sponsor.                    \par  \par  NIGERIA ENERGY\par  Nigeria is betting on green finance to drive its energy\par  transition with the president unveiling plans for a $2\par  billion climate fund on Tuesday, saying oversubscribed green\par  bonds were proof of investor appetite.            \par  \par  ANGOLA DEBT\par  Angola has secured access to an additional $500 million in\par  financing, extending an existing $1 billion debt facility\par  with \f28 \uc2 \f2 JPMorgan\f28 \uc2 \f2         , its finance ministry said on\par  Tuesday.            \par  \par  NIGERIA SECURITY\par  The United States has delivered critical military supplies\par  to Nigeria to bolster the West African nation's operations,\par  the U.S. military's Africa Command (AFRICOM) said on\par  Tuesday.            \par  \par  UGANDA ELECTIONS\par  Ugandan authorities cut internet access and limited mobile\par  services across the country on Tuesday, two days before an\par  election in which President \f28 \uc2 \f2 Yoweri Museveni\f28 \uc2 \f2  will stand for a\par  contentious seventh term after four decades in\par  power.            \par  \par      For the latest precious metals report click on        \par      For the latest base metals report click on         \par      For the latest crude oil report click on       \par  \par \par  (Compiled by Nairobi Newsroom)\f28 \par \par \par \par \uc2 Released: 2026-1-14T06:30:21.000Z \par \par \uc2 Document LBA0000020260114em1e00aq7\par }\page {\par\fs20{\*\shppict{\pict\pngblip\picw172\pich40\picscaley100\picscalex100\picwgoal2580\pichgoal600
47
4946383961AC002800F7FF00FFE8CDFFDAACFFA23CE6E6E6FBFBFB959595FFD6AD6D6D6DFFC98DFFB972FFC985FFC991A5A5A5FFD1A1B5B5B5FF850AFFDDB5FF
9308FFE4C6FFF4E8FFA535FFBE7C7A7A7ACBCBCBFF9B24858585FFF2E4C1C1C1F2F2F2FFAA45FFCE9CFFE3C5FFE3BEFFE6CDFFEBD4FF921AFF9316FFAD59FF9D
39F4F4F4FFF0E0EBEBEBFDFDFDFF8300FFA54AB8B8B8FF962AFF8A00FFFCF9C5C5C5FFCD90FFC17F777777828282FFDBB5AAAAAA7E7E7EFFF0DEFFFAF5717171
D4D4D4FFD6A5F8F8F8D7D7D7FFA1418E8E8EFFDFBCFFF8F0ECECECFF8E00FFB056FFC687FF9929FF9A32FFD096FFD6AAFFCE9BA0A0A0FFFDFBFFFBF7CDCDCDFF
B559FFF9F2DFDFDFFFD9A77C7C7CFFCC8D9B9B9BFFCA89BCBCBCFF8700FFCC96FFC1748B8B8BD1D1D1DCDCDCFFFEFDB2B2B2FFE4C26B6B6BFFD59F8888886868
689C9C9CFFE0C0FF9934FFF3E6FFA542FFB04AD2D2D2E4E4E4FFB469FFDEB2FFB05DFFECD8FFF7EEFFD19BF0F0F0FFD4A18A8A8AFFC27AFFA94EFFC488E0E0E0
FF8E1AFF880DD9D9D9FFA850FFE8D0ACACACFFC071FF9F2EFFB86DFF9721FFEFDBFF8D15FFAE48FFA244FFE4C8FFECD6FFD8B0929292FF9226FFBA68FFB965FF
DCB8FFBF76FFB162FFBE6CFFE5CAFFB66DFF9021FFAB55737373FFF1E2FFEEDDFFE9D2FF8205BEBEBEFFE6CAFFDEBBFFC282FFAE56FF8912FFB6639E9E9EFFB6
5BFF9D36FFB050FFF6ECFFEBD3FFE2C2FFE3C0FFE1BAFFBC6CFF7F00FFF6EAFFE7C8FF9426FFDBB2FFDBB0FFD9B2FFBC66FFB265FFAF4FFFA83FFFA644FF9818
FF8A15666666FF8000E8E8E8FF8100DADADAF7F7F7FF8400B1B1B1E3E3E3676767EEEEEE747474EFEFEFCECECEFFF5EAFFEED9F6F6F6E2E2E2818181FFF8EFFE
FEFEC8C8C8FF9D33FFF2E1BBBBBB989898FFDDBAAFAFAFDBDBDBFFAE5CFFF6E9E9E9E9FFD2A4FF8F20FF8B07FF8D06FFCC8CFFBB76FFBE71FFC579FF8408FFB8
5EFFC06EFF8D0EFFB25BFF8402FFAF60FFF2E3FFEDDAFFB454FFC386FFC882FFC88FFFCF9FFFD49BFFECD3FFEACFFFDEB9FFCA94FFB455FFE1C1FF8908FFFAF3
FF8F08FF8C11FFC388FFFFFF21FF0B584D502044617461584D503C3F787061636B657420626567696E3D22EFBBBF222069643D2257354D304D7043656869487A
7265537A4E54637A6B633964223F3E203C783A786D706D65746120786D6C6E733A783D2261646F62653A6E733A6D6574612F2220783A786D70746B3D2241646F
626520584D5020436F726520352E362D633131312037392E3135383332352C20323031352F30392F31302D30313A31303A32302020202020202020223E203C72
64663A52444620786D6C6E733A7264663D22687474703A2F2F7777772E77332E6F72672F313939392F30322F32322D7264662D73796E7461782D6E7323223E20
3C7264663A4465736372697074696F6E207264663A61626F75743D222220786D6C6E733A786D703D22687474703A2F2F6E732E61646F62652E636F6D2F786170
2F312E302F2220786D6C6E733A786D704D4D3D22687474703A2F2F6E732E61646F62652E636F6D2F7861702F312E302F6D6D2F2220786D6C6E733A7374526566
3D22687474703A2F2F6E732E61646F62652E636F6D2F7861702F312E302F73547970652F5265736F75726365526566232220786D703A43726561746F72546F6F
6C3D2241646F62652050686F746F73686F70204343203230313520284D6163696E746F7368292220786D704D4D3A496E7374616E636549443D22786D702E6969
643A42384642314346443530463531314536393838464545313643313433353536382220786D704D4D3A446F63756D656E7449443D22786D702E6469643A4238
464231434645353046353131453639383846454531364331343335353638223E203C786D704D4D3A4465726976656446726F6D2073745265663A696E7374616E
636549443D22786D702E6969643A4238464231434642353046353131453639383846454531364331343335353638222073745265663A646F63756D656E744944
3D22786D702E6469643A4238464231434643353046353131453639383846454531364331343335353638222F3E203C2F7264663A4465736372697074696F6E3E
203C2F7264663A5244463E203C2F783A786D706D6574613E203C3F787061636B657420656E643D2272223F3E01FFFEFDFCFBFAF9F8F7F6F5F4F3F2F1F0EFEEED
ECEBEAE9E8E7E6E5E4E3E2E1E0DFDEDDDCDBDAD9D8D7D6D5D4D3D2D1D0CFCECDCCCBCAC9C8C7C6C5C4C3C2C1C0BFBEBDBCBBBAB9B8B7B6B5B4B3B2B1B0AFAEAD
ACABAAA9A8A7A6A5A4A3A2A1A09F9E9D9C9B9A999897969594939291908F8E8D8C8B8A898887868584838281807F7E7D7C7B7A797877767574737271706F6E6D
6C6B6A696867666564636261605F5E5D5C5B5A595857565554535251504F4E4D4C4B4A494847464544434241403F3E3D3C3B3A393837363534333231302F2E2D
2C2B2A292827262524232221201F1E1D1C1B1A191817161514131211100F0E0D0C0B0A090807060504030201000021F904010000FF002C00000000AC00280040
08FF00FF091C48B020B379D004522A6248A018324E0A4A9C48B1A2C58B18336ADCC8B1634126060A222A5210D78B7F42B48CF86780D13F452B56DC2308660B1A
8F3873EADCC9F3221A13975CA22818F15F3C163725AA99F7AF9D29819504BED136C7920BAA1983F5DA7A41A2A7ADBD92099C02B6ABC562605B4CBCB175873089
1CC66C2536310B582218716CBD22F118D80D025B800D54518AAFC3BEFEC9C154E21FA85321FE09680742103330033F5478752D07A27F6218FE4B208925B0C38D
316AE54AF00A586504BF80E59177EB011F050718DB5A6062DCB913056F6D56BB17DF813FC0F6CE68612B0E89AB0E2159F6CFC5B035FFF2C11038414D411DA9FE
4DFF50B2ED9F3C74D87BAA5FCFBE3DC6EDFF523DB252908C20818872094C28FE910C81F0B927E080046E149126220CF4844032D8F20F043248B0C62621AC0288
090B0021CB26DE7442DD07068893C03F1260B6110F60A5A8A203059DA1E28BC108B40758614CC4C05666E066CD8B3CF692C23F2A20D3235804ED30E45641A840
101447F6B2810B88CD548B2604D9420735765884821152802087214A48F1CF0C3354871813AA35D90B5D039105D66E2A6630105A5BA925115BBDB805975C6BD6
D5240304E9756417044874420C8DBC58E34084C404CA68874901C46102E9E04B1AF200B3C502480C24051C0B0EF2C21CFF001153541A1583830555FC20D11738
54FF81CCA20285818319299A7180055D1C2311A246F6620C0DD69845513319586001601309D3040DB882A52B0E4D105480B2D84CD485B2652819CD06D664B043
B46654D184331829F1C20B3A6C84C5BA0B1628EFBCF45AE4192598D5130E75124160C576CC74C08589F5166CB07B4668A1059A03B5520433142DA1D23F913420
50210A0372F0C61C6F14D30A49FC330F094909D4C12303C963F122282492042709E8F14F1CC000B3C03F1FC7C1910F294CF1431B175C00C5146F5594020F4107
CD831FDCE036500A03FC52A844C20C3080AFFF54FDCBD65C77FDCBD5B97991B4323C7C41C4D40325E3CC0F3C4011F40F5857E4C31ECA5CE0453667575A33300F
FCFF438A16A7FCA384833984239025AF945081075B3CF248BBC008F0CF2BC04432C9611EC8B1F71B59BD46D0090E8055C640CE8055CD4574F662674178EA5990
307CB228915D5B4D51DC19057991095862FD437B2F4DF42E1001DC0473C235E5F8C2C23FD3AC00CC3F146821260C109459D104E7303A821C36D40C4A25BCF862
829817ADD68BAB04F1C0A79C638145430DF0C76FEE9C69ADD556D104FDD6E7EC60E1103FFCCFC0C1E90622A86A1184081900CB8F0412081559801803904824B6
D30760BC6219A25801273E41827FD483151541C2CD14F00F3048E01F80E8833EA2A2084E68C47C6108C60F9421A81DA0AD7D5BA18D45DC00962CD8AF17B7D913
70FFF8B79513142708C1F0030F6EB41569644418AED94A17FE81862498603B97388C0E9EF006407CC031AFE8861A40210A1B98201FCB10013FBC539023E04120
1E900526C857BEB214E477B422C001C0B2031AF8F18F1658E03FA221A8AD58E01942024B1028A23F3615644660C9C41FFFB84802EEA520C9008B0506D28C371D
40922A2A06A386310C8B8520117A00C0CD4A050C4C304F17FFB0070698E10453C0E11F4E6007C1FEA10B5296AC63C00CE64000308835F04B208028042C03F082
71FC83164500C03F62118082CC0209E9089030B7C94D8940A2085410083C76410D8160A0088BE8A63AD759117314A1070CA2800604B28B22C8819DF8ECA6BAD8
E5FF2E78E5F39FF45A050990309481E4000B09710749FEB12E127D437204B103093A4047805A543D8040820926F00F2A9070224E100247FF3187217C62182B28
930D0A218A8BBA7427DA20653C08028378B9830BFF90410704228059E00C1836F8C722BA71212008641AA40CEA4B979A9177C42424E1780104FEC18A700A6409
FDE044395ED1005F1895258789041A7CD189794E62057DB8A74606B03B1EEDE00A312A880F0A30A41D2CF01770F2C4441AD88B4C140A4F4D3A8011FF31801AF4
C818A31B4823A2A522636480598F2C45B0DE4483464490117C70C43D2560844848C4158320D11BF270843C2C62028918050C34A181773426018791D90C0E0184
91FFD6712B34B843108290813DCE66203E88D618CA10842E18B70BC4ED5DEA564790D6E1260B387806FC7000A74CC40F0765784B72DA52DCE322D7800211D401
32D0DDE68005BC1C48D118C85B065935D152BE0046270432832FDA0203FF00003EFEE188A01044076A784A0510301A6DFC63199818D10710738BCE6DC50B12A1
2B10A7269B07A3AE7E77BA9F447C10BBE0808503B793C805ECF80FC062C4061189C33002A70A9F82E03F49B01845C26987D0B260181F88477C2BF08F1044C6C1
BD8082449818C47FB8A917C6A2C8727FE8BAFCF1C99104F91D5E2E2228DC15A4C24816C82F5214840B28A9208E404C3C74B080A87C62AA5488052DDE58111454
13FF1556150800EE19BEC3ACD222E6ABC115AE708670A50836381C9219E8572726E36F208DF4D3912A19DEAD20C31A67D87310186B8D8238C0B7292A405C25C0
8751343811A7990029D4F1A87F80C07015F9C4119E30847F20E00528E8DE0A7AA0892494E30FDAA488F97844035112E4C82D2082D70600628194AED012E16B93
11FD6445F782072918B6D31A3D24C852E4170E48E456DAF08F255CE201069043022C06068E6AA234F5E801C424428812A882221C65411F8050D0DBF622AEFF38
762F12DB26B038D122278013A0241204DCFAA6D944ECC52F8A03DE7FD0E0C31AA982219F508E9AB9000C9D38CC35FE008C49FC430BF100831372A104496CE10F
8EFF7805479911CE1C70611F7350D81016B1B711A589359C8CD60E083280C134E3CB14A906589E813E027841DBDC16E2FE0AF215AEDC7022823ACE400ABE956C
10441A17F8420A4E50A81430B11756864A3E8690000F74639E0978C53A3E90047FA461A35B80410590A0861EE8801A6C280F0CC223905AB47A23DBED450C2462
DE5EEC6120616892D5119DC01E3502E805A90358062E9132348920BE65F440B001966CFDE3044D1AFC403E26B951D4ACD57AA8C402F8100A1488491E7C87C12E
9440105750400773C899809EFE0F0E70ED6A1C88864584418401E46D3D043846D4B6C681C17A84F73E4886D5E226111BACE21FED12481F56700881A01805C3D0
C2763FEC000E6936AC082010C8DF6BE142A6BA3F2309D3021DFE31845AA0446111219540E2658A081404635AA031EF37801BA109A8C06603510FA8305507754C
FF9003B880800438811A010B51000F9821065C506F04D1035C20266A10051F458124C8116A002A02410E11900302410F5355823038100101003B}}
